{
  "contractName": "BarnFacet",
  "abi": [
    {
      "anonymous": false,
      "inputs": [
        {
          "indexed": true,
          "internalType": "address",
          "name": "from",
          "type": "address"
        },
        {
          "indexed": true,
          "internalType": "address",
          "name": "to",
          "type": "address"
        }
      ],
      "name": "Delegate",
      "type": "event"
    },
    {
      "anonymous": false,
      "inputs": [
        {
          "indexed": true,
          "internalType": "address",
          "name": "from",
          "type": "address"
        },
        {
          "indexed": true,
          "internalType": "address",
          "name": "to",
          "type": "address"
        },
        {
          "indexed": false,
          "internalType": "uint256",
          "name": "amount",
          "type": "uint256"
        },
        {
          "indexed": false,
          "internalType": "uint256",
          "name": "to_newDelegatedPower",
          "type": "uint256"
        }
      ],
      "name": "DelegatedPowerDecreased",
      "type": "event"
    },
    {
      "anonymous": false,
      "inputs": [
        {
          "indexed": true,
          "internalType": "address",
          "name": "from",
          "type": "address"
        },
        {
          "indexed": true,
          "internalType": "address",
          "name": "to",
          "type": "address"
        },
        {
          "indexed": false,
          "internalType": "uint256",
          "name": "amount",
          "type": "uint256"
        },
        {
          "indexed": false,
          "internalType": "uint256",
          "name": "to_newDelegatedPower",
          "type": "uint256"
        }
      ],
      "name": "DelegatedPowerIncreased",
      "type": "event"
    },
    {
      "anonymous": false,
      "inputs": [
        {
          "indexed": true,
          "internalType": "address",
          "name": "user",
          "type": "address"
        },
        {
          "indexed": false,
          "internalType": "uint256",
          "name": "amount",
          "type": "uint256"
        },
        {
          "indexed": false,
          "internalType": "uint256",
          "name": "newBalance",
          "type": "uint256"
        }
      ],
      "name": "Deposit",
      "type": "event"
    },
    {
      "anonymous": false,
      "inputs": [
        {
          "indexed": true,
          "internalType": "address",
          "name": "user",
          "type": "address"
        },
        {
          "indexed": false,
          "internalType": "uint256",
          "name": "timestamp",
          "type": "uint256"
        }
      ],
      "name": "Lock",
      "type": "event"
    },
    {
      "anonymous": false,
      "inputs": [
        {
          "indexed": true,
          "internalType": "address",
          "name": "user",
          "type": "address"
        },
        {
          "indexed": false,
          "internalType": "uint256",
          "name": "timestamp",
          "type": "uint256"
        },
        {
          "indexed": false,
          "internalType": "uint8",
          "name": "dataType",
          "type": "uint8"
        },
        {
          "indexed": false,
          "internalType": "bytes32",
          "name": "data",
          "type": "bytes32"
        }
      ],
      "name": "Timelock",
      "type": "event"
    },
    {
      "anonymous": false,
      "inputs": [
        {
          "indexed": true,
          "internalType": "address",
          "name": "user",
          "type": "address"
        },
        {
          "indexed": false,
          "internalType": "uint8",
          "name": "dataType",
          "type": "uint8"
        }
      ],
      "name": "UnlockTimelock",
      "type": "event"
    },
    {
      "anonymous": false,
      "inputs": [
        {
          "indexed": true,
          "internalType": "address",
          "name": "user",
          "type": "address"
        },
        {
          "indexed": false,
          "internalType": "uint256",
          "name": "amountWithdrew",
          "type": "uint256"
        },
        {
          "indexed": false,
          "internalType": "uint256",
          "name": "amountLeft",
          "type": "uint256"
        }
      ],
      "name": "Withdraw",
      "type": "event"
    },
    {
      "inputs": [],
      "name": "MAX_LOCK",
      "outputs": [
        {
          "internalType": "uint256",
          "name": "",
          "type": "uint256"
        }
      ],
      "stateMutability": "view",
      "type": "function"
    },
    {
      "inputs": [
        {
          "internalType": "address",
          "name": "_bond",
          "type": "address"
        },
        {
          "internalType": "address",
          "name": "_rewards",
          "type": "address"
        }
      ],
      "name": "initBarn",
      "outputs": [],
      "stateMutability": "nonpayable",
      "type": "function"
    },
    {
      "inputs": [
        {
          "internalType": "uint256",
          "name": "amount",
          "type": "uint256"
        }
      ],
      "name": "deposit",
      "outputs": [],
      "stateMutability": "nonpayable",
      "type": "function"
    },
    {
      "inputs": [
        {
          "internalType": "uint256",
          "name": "amount",
          "type": "uint256"
        }
      ],
      "name": "withdraw",
      "outputs": [],
      "stateMutability": "nonpayable",
      "type": "function"
    },
    {
      "inputs": [
        {
          "internalType": "uint256",
          "name": "timestamp",
          "type": "uint256"
        }
      ],
      "name": "lock",
      "outputs": [],
      "stateMutability": "nonpayable",
      "type": "function"
    },
    {
      "inputs": [
        {
          "internalType": "uint256",
          "name": "amount",
          "type": "uint256"
        },
        {
          "internalType": "uint256",
          "name": "timestamp",
          "type": "uint256"
        }
      ],
      "name": "depositAndLock",
      "outputs": [],
      "stateMutability": "nonpayable",
      "type": "function"
    },
    {
      "inputs": [
        {
          "internalType": "uint256",
          "name": "_amount",
          "type": "uint256"
        },
        {
          "internalType": "uint256",
          "name": "_timestamp",
          "type": "uint256"
        },
        {
          "internalType": "uint8",
          "name": "_type",
          "type": "uint8"
        },
        {
          "internalType": "bytes32",
          "name": "_data",
          "type": "bytes32"
        }
      ],
      "name": "addOrAdjusttimelock",
      "outputs": [],
      "stateMutability": "nonpayable",
      "type": "function"
    },
    {
      "inputs": [
        {
          "internalType": "address",
          "name": "to",
          "type": "address"
        }
      ],
      "name": "delegate",
      "outputs": [],
      "stateMutability": "nonpayable",
      "type": "function"
    },
    {
      "inputs": [],
      "name": "stopDelegate",
      "outputs": [],
      "stateMutability": "nonpayable",
      "type": "function"
    },
    {
      "inputs": [
        {
          "internalType": "address",
          "name": "user",
          "type": "address"
        }
      ],
      "name": "balanceOf",
      "outputs": [
        {
          "internalType": "uint256",
          "name": "",
          "type": "uint256"
        }
      ],
      "stateMutability": "view",
      "type": "function"
    },
    {
      "inputs": [
        {
          "internalType": "address",
          "name": "user",
          "type": "address"
        },
        {
          "internalType": "uint256",
          "name": "timestamp",
          "type": "uint256"
        }
      ],
      "name": "balanceAtTs",
      "outputs": [
        {
          "internalType": "uint256",
          "name": "",
          "type": "uint256"
        }
      ],
      "stateMutability": "view",
      "type": "function"
    },
    {
      "inputs": [
        {
          "internalType": "address",
          "name": "user",
          "type": "address"
        },
        {
          "internalType": "uint256",
          "name": "timestamp",
          "type": "uint256"
        }
      ],
      "name": "stakeAtTs",
      "outputs": [
        {
          "components": [
            {
              "internalType": "uint256",
              "name": "timestamp",
              "type": "uint256"
            },
            {
              "internalType": "uint256",
              "name": "amount",
              "type": "uint256"
            },
            {
              "internalType": "uint256",
              "name": "expiryTimestamp",
              "type": "uint256"
            },
            {
              "internalType": "address",
              "name": "delegatedTo",
              "type": "address"
            }
          ],
          "internalType": "struct LibBarnStorage.Stake",
          "name": "",
          "type": "tuple"
        }
      ],
      "stateMutability": "view",
      "type": "function"
    },
    {
      "inputs": [
        {
          "internalType": "address",
          "name": "user",
          "type": "address"
        }
      ],
      "name": "votingPower",
      "outputs": [
        {
          "internalType": "uint256",
          "name": "",
          "type": "uint256"
        }
      ],
      "stateMutability": "view",
      "type": "function"
    },
    {
      "inputs": [
        {
          "internalType": "address",
          "name": "user",
          "type": "address"
        },
        {
          "internalType": "uint256",
          "name": "timestamp",
          "type": "uint256"
        }
      ],
      "name": "votingPowerAtTs",
      "outputs": [
        {
          "internalType": "uint256",
          "name": "",
          "type": "uint256"
        }
      ],
      "stateMutability": "view",
      "type": "function"
    },
    {
      "inputs": [],
      "name": "bondStaked",
      "outputs": [
        {
          "internalType": "uint256",
          "name": "",
          "type": "uint256"
        }
      ],
      "stateMutability": "view",
      "type": "function"
    },
    {
      "inputs": [
        {
          "internalType": "uint256",
          "name": "timestamp",
          "type": "uint256"
        }
      ],
      "name": "bondStakedAtTs",
      "outputs": [
        {
          "internalType": "uint256",
          "name": "",
          "type": "uint256"
        }
      ],
      "stateMutability": "view",
      "type": "function"
    },
    {
      "inputs": [
        {
          "internalType": "address",
          "name": "user",
          "type": "address"
        }
      ],
      "name": "delegatedPower",
      "outputs": [
        {
          "internalType": "uint256",
          "name": "",
          "type": "uint256"
        }
      ],
      "stateMutability": "view",
      "type": "function"
    },
    {
      "inputs": [
        {
          "internalType": "address",
          "name": "user",
          "type": "address"
        },
        {
          "internalType": "uint256",
          "name": "timestamp",
          "type": "uint256"
        }
      ],
      "name": "delegatedPowerAtTs",
      "outputs": [
        {
          "internalType": "uint256",
          "name": "",
          "type": "uint256"
        }
      ],
      "stateMutability": "view",
      "type": "function"
    },
    {
      "inputs": [
        {
          "internalType": "address",
          "name": "user",
          "type": "address"
        }
      ],
      "name": "multiplierOf",
      "outputs": [
        {
          "internalType": "uint256",
          "name": "",
          "type": "uint256"
        }
      ],
      "stateMutability": "view",
      "type": "function"
    },
    {
      "inputs": [
        {
          "internalType": "address",
          "name": "user",
          "type": "address"
        },
        {
          "internalType": "uint256",
          "name": "timestamp",
          "type": "uint256"
        }
      ],
      "name": "multiplierAtTs",
      "outputs": [
        {
          "internalType": "uint256",
          "name": "",
          "type": "uint256"
        }
      ],
      "stateMutability": "view",
      "type": "function"
    },
    {
      "inputs": [
        {
          "internalType": "address",
          "name": "user",
          "type": "address"
        }
      ],
      "name": "userLockedUntil",
      "outputs": [
        {
          "internalType": "uint256",
          "name": "",
          "type": "uint256"
        }
      ],
      "stateMutability": "view",
      "type": "function"
    },
    {
      "inputs": [
        {
          "internalType": "address",
          "name": "_user",
          "type": "address"
        },
        {
          "internalType": "uint8",
          "name": "_type",
          "type": "uint8"
        }
      ],
      "name": "checkTimeLock",
      "outputs": [
        {
          "internalType": "uint256",
          "name": "amount",
          "type": "uint256"
        },
        {
          "internalType": "uint256",
          "name": "expiry",
          "type": "uint256"
        },
        {
          "internalType": "bytes32",
          "name": "data",
          "type": "bytes32"
        }
      ],
      "stateMutability": "view",
      "type": "function"
    },
    {
      "inputs": [
        {
          "internalType": "address",
          "name": "user",
          "type": "address"
        }
      ],
      "name": "userDelegatedTo",
      "outputs": [
        {
          "internalType": "address",
          "name": "",
          "type": "address"
        }
      ],
      "stateMutability": "view",
      "type": "function"
    }
  ],
  "bytecode": "0x608060405234801561001057600080fd5b50611e87806100206000396000f3fe608060405234801561001057600080fd5b506004361061014d5760003560e01c80637a141096116100c3578063c07473f61161007c578063c07473f6146102c0578063c2077e81146102d3578063cbf8eda9146102db578063d265a115146102ee578063dd46706414610301578063f77f962f146103145761014d565b80637a141096146102415780638e4a524814610254578063b6b55f2514610267578063bef624d81461027a578063bf0ae48c1461029a578063bfc10279146102ad5761014d565b80635107a3ae116101155780635107a3ae146101d65780635c19a95c146101e957806365a5d5f0146101fc578063697eb324146102045780636f1215781461022657806370a082311461022e5761014d565b8063169df0641461015257806318ab6a3c1461017b57806320e77a841461019b5780632e1a7d4d146101b0578063417edd4d146101c3575b600080fd5b610165610160366004611956565b610327565b6040516101729190611dea565b60405180910390f35b61018e6101893660046119a2565b61033b565b6040516101729190611db6565b6101ae6101a9366004611a65565b610512565b005b6101ae6101be366004611a14565b61057a565b6101656101d13660046119a2565b610828565b6101ae6101e4366004611970565b610841565b6101ae6101f7366004611956565b6108dc565b610165610ad1565b6102176102123660046119cb565b610ad9565b60405161017293929190611e01565b6101ae610b52565b61016561023c366004611956565b610b5e565b61016561024f3660046119a2565b610b6a565b610165610262366004611956565b610b8b565b6101ae610275366004611a14565b610b97565b61028d610288366004611956565b610e96565b6040516101729190611aa1565b6101656102a8366004611956565b610eae565b6101ae6102bb366004611a44565b610ec6565b6101656102ce366004611956565b610edc565b610165610ee8565b6101656102e93660046119a2565b610ef8565b6101656102fc3660046119a2565b610f7c565b6101ae61030f366004611a14565b610fb2565b610165610322366004611a14565b6110c6565b60006103338242610f7c565b90505b919050565b6103436118fd565b600061034d6110dc565b6001600160a01b03851660009081526001820160205260409020805491925090158061039657508060008154811061038157fe5b90600052602060002090600402016000015484105b156103d05760405180608001604052804281526020016000815260200142815260200160006001600160a01b03168152509250505061050c565b80546000906000198101908390829081106103e757fe5b90600052602060002090600402016000015486106104615782818154811061040b57fe5b6000918252602091829020604080516080810182526004909302909101805483526001810154938301939093526002830154908201526003909101546001600160a01b03166060820152945061050c9350505050565b818111156104af57600060026001838501010490508684828154811061048357fe5b906000526020600020906004020160000154116104a2578092506104a9565b6001810391505b50610461565b8282815481106104bb57fe5b6000918252602091829020604080516080810182526004909302909101805483526001810154938301939093526002830154908201526003909101546001600160a01b031660608201529450505050505b92915050565b61051b84610b97565b61052483610fb2565b61052f338383611100565b336001600160a01b03167fc262f2ecc2db2f7833ae92a6147054879e39334843267f53fea2a25bf04407ba84848460405161056c93929190611e17565b60405180910390a250505050565b600081116105a35760405162461bcd60e51b815260040161059a90611bb1565b60405180910390fd5b426105ad33610eae565b11156105cb5760405162461bcd60e51b815260040161059a90611c71565b60006105d633610b5e565b9050818110156105f85760405162461bcd60e51b815260040161059a90611be8565b60006106026110dc565b60068101549091506001600160a01b03161561067d5760068101546040516366a7d82160e01b81526001600160a01b03909116906366a7d8219061064a903390600401611aa1565b600060405180830381600087803b15801561066457600080fd5b505af1158015610678573d6000803e3d6000fd5b505050505b33600090815260018201602052604090206106a19061069c8486611144565b6111a1565b6106bc6106b7846106b1426110c6565b90611144565b6112df565b60006106c733610e96565b90506001600160a01b0381161561075d5760006106e7856106b184610327565b6001600160a01b0383166000908152600385016020526040902090915061070e908261139a565b816001600160a01b0316336001600160a01b03167ffb73cd22fb01f433ef312f758a708c1c7d1442ec871b9dd2546b3ec85a8b4e768784604051610753929190611df3565b60405180910390a3505b6107663361143d565b600582015460405163a9059cbb60e01b81526001600160a01b039091169063a9059cbb9061079a9033908890600401611af3565b602060405180830381600087803b1580156107b457600080fd5b505af11580156107c8573d6000803e3d6000fd5b505050506040513d601f19601f820116820180604052508101906107ec91906119f4565b50337ff279e6a1f5e320cca91135676d9cb6e44ca8a08c0b88342bcdb1144f6511b5688561081a8682611144565b60405161056c929190611df3565b600080610835848461033b565b60200151949350505050565b6001600160a01b0382166108675760405162461bcd60e51b815260040161059a90611b43565b60006108716110dc565b805490915060ff16156108965760405162461bcd60e51b815260040161059a90611b0c565b61089e611474565b805460ff191660011781556005810180546001600160a01b039485166001600160a01b03199182161790915560069091018054929093169116179055565b336001600160a01b03821614156109055760405162461bcd60e51b815260040161059a90611c16565b600061091033610b5e565b9050600081116109325760405162461bcd60e51b815260040161059a90611cf0565b600061093c6110dc565b6040519091506001600160a01b0384169033907fab7d75eccd27c9989942a3a6e4137e415df0ad90ec428751b16361f16fe8780f90600090a3600061098033610e96565b90506001600160a01b03811615610a165760006109a0846106b184610327565b6001600160a01b038316600090815260038501602052604090209091506109c7908261139a565b816001600160a01b0316336001600160a01b03167ffb73cd22fb01f433ef312f758a708c1c7d1442ec871b9dd2546b3ec85a8b4e768684604051610a0c929190611df3565b60405180910390a3505b6001600160a01b03841615610ab0576000610a3a84610a3487610327565b906114a7565b6001600160a01b03861660009081526003850160205260409020909150610a61908261139a565b846001600160a01b0316336001600160a01b03167f9306546ca617a204223f7da51d942104c887cf8e53f8fd454af55a529aaa689a8684604051610aa6929190611df3565b60405180910390a3505b3360009081526001830160205260409020610acb9085611501565b50505050565b6301e1338081565b600080600080610ae76110dc565b6001600160a01b038716600090815260049190910160209081526040918290208251808401909352805483526001015460ff9081169183018290529192509086161415610b4a57610b3786610b5e565b9350610b4286610eae565b815190935091505b509250925092565b610b5c60006108dc565b565b60006103338242610828565b600080610b77848461033b565b9050610b8381846115e0565b949350505050565b60006103338242610b6a565b60008111610bb75760405162461bcd60e51b815260040161059a90611bb1565b6000610bc16110dc565b6005810154604051636eb1769f60e11b81529192506000916001600160a01b039091169063dd62ed3e90610bfb9033903090600401611ab5565b60206040518083038186803b158015610c1357600080fd5b505afa158015610c27573d6000803e3d6000fd5b505050506040513d601f19601f82011682018060405250810190610c4b9190611a2c565b905082811015610c6d5760405162461bcd60e51b815260040161059a90611b7a565b60068201546001600160a01b031615610ce55760068201546040516366a7d82160e01b81526001600160a01b03909116906366a7d82190610cb2903390600401611aa1565b600060405180830381600087803b158015610ccc57600080fd5b505af1158015610ce0573d6000803e3d6000fd5b505050505b6000610cf484610a3433610b5e565b3360009081526001850160205260409020909150610d1290826111a1565b610d226106b785610a34426110c6565b6000610d2d33610e96565b90506001600160a01b03811615610dc3576000610d4d86610a3484610327565b6001600160a01b03831660009081526003870160205260409020909150610d74908261139a565b816001600160a01b0316336001600160a01b03167f9306546ca617a204223f7da51d942104c887cf8e53f8fd454af55a529aaa689a8884604051610db9929190611df3565b60405180910390a3505b60058401546040516323b872dd60e01b81526001600160a01b03909116906323b872dd90610df990339030908a90600401611acf565b602060405180830381600087803b158015610e1357600080fd5b505af1158015610e27573d6000803e3d6000fd5b505050506040513d601f19601f82011682018060405250810190610e4b91906119f4565b50336001600160a01b03167f90890809c654f11d6e72a28fa60149770a0d11ec6c92319d6ceb2bb0a4ea1a158684604051610e87929190611df3565b60405180910390a25050505050565b600080610ea3834261033b565b606001519392505050565b600080610ebb834261033b565b604001519392505050565b610ecf82610b97565b610ed881610fb2565b5050565b60006103338242610ef8565b6000610ef3426110c6565b905090565b600080610f05848461033b565b60608101519091506000906001600160a01b031615610f2657506000610f5a565b60208201516000610f3784876115e0565b9050610f55670de0b6b3a7640000610f4f8484611656565b906116af565b925050505b6000610f668686610f7c565b9050610f7282826114a7565b9695505050505050565b6000610fab610f896110dc565b6001600160a01b03851660009081526003919091016020526040902083611716565b9392505050565b428111610fd15760405162461bcd60e51b815260040161059a90611d7f565b6301e133804201811115610ff75760405162461bcd60e51b815260040161059a90611c46565b600061100233610b5e565b1161101f5760405162461bcd60e51b815260040161059a90611d20565b60006110296110dc565b33600090815260018201602052604081208054929350918290600019810190811061105057fe5b90600052602060002090600402019050806002015484116110835760405162461bcd60e51b815260040161059a90611ca1565b61108d828561181d565b336001600160a01b03167f625fed9875dada8643f2418b838ae0bc78d9a148a18eee4ee1979ff0f3f5d4278560405161056c9190611dea565b60006103336110d36110dc565b60020183611716565b7fe96c66e59227df98cba2247b26f0b557ed0f64708a0822054b1f9fc99942071590565b600061110a6110dc565b6001600160a01b0394909416600090815260049094016020525060409092209182556001909101805460ff191660ff909216919091179055565b60008282111561119b576040805162461bcd60e51b815260206004820152601e60248201527f536166654d6174683a207375627472616374696f6e206f766572666c6f770000604482015290519081900360640190fd5b50900390565b815461121d5760408051608081018252428082526020808301858152938301918252600060608401818152875460018082018a55898452939092209451600490920290940190815593519084015551600283015551600390910180546001600160a01b0319166001600160a01b03909216919091179055610ed8565b81546000908390600019810190811061123257fe5b90600052602060002090600402019050428160000154141561125a57600181018290556112da565b6040805160808101825242815260208082018581526002858101549484019485526003808701546001600160a01b03908116606087019081528a5460018082018d5560008d81529790972097516004909102909701968755935194860194909455945190840155519190920180546001600160a01b031916919092161790555b505050565b60006112e96110dc565b600281015490915015806113235750600281018054429190600019810190811061130f57fe5b906000526020600020906002020160000154105b156113675760408051808201909152428152602080820184815260028085018054600181810183556000928352949091209451910290930192835551910155610ed8565b60028101805460009190600019810190811061137f57fe5b60009182526020909120600160029092020101839055505050565b815415806113cb575081544290839060001981019081106113b757fe5b906000526020600020906002020160000154105b1561140d576040805180820190915242815260208082018381528454600181810187556000878152939093209351600290910290930192835551910155610ed8565b81546000908390600019810190811061142257fe5b60009182526020909120600160029092020101829055505050565b60006114476110dc565b6001600160a01b03909216600090815260049092016020525060408120908155600101805460ff19169055565b61147c6118d9565b600301546001600160a01b03163314610b5c5760405162461bcd60e51b815260040161059a90611d4f565b600082820183811015610fab576040805162461bcd60e51b815260206004820152601b60248201527f536166654d6174683a206164646974696f6e206f766572666c6f770000000000604482015290519081900360640190fd5b81546000908390600019810190811061151657fe5b9060005260206000209060040201905042816000015410156115bc576040805160808101825242815260018381015460208084019182526002808701549585019586526001600160a01b03888116606087019081528a548087018c5560008c815294909420965160049094029096019283559251938201939093559351918401919091559051600390920180546001600160a01b031916929091169190911790556112da565b6003810180546001600160a01b0384166001600160a01b0319909116179055505050565b6000826040015182106115fc5750670de0b6b3a764000061050c565b60408301518290036301e13380811061162a57611622670de0b6b3a76400006002611656565b91505061050c565b610b836116476301e13380610f4f84670de0b6b3a7640000611656565b670de0b6b3a7640000906114a7565b6000826116655750600061050c565b8282028284828161167257fe5b0414610fab5760405162461bcd60e51b8152600401808060200182810382526021815260200180611e316021913960400191505060405180910390fd5b6000808211611705576040805162461bcd60e51b815260206004820152601a60248201527f536166654d6174683a206469766973696f6e206279207a65726f000000000000604482015290519081900360640190fd5b81838161170e57fe5b049392505050565b8154600090158061174457508260008154811061172f57fe5b90600052602060002090600202016000015482105b156117515750600061050c565b825460009060001981019085908290811061176857fe5b90600052602060002090600202016000015484106117a75784818154811061178c57fe5b9060005260206000209060020201600101549250505061050c565b818111156117f55760006002600183850101049050848682815481106117c957fe5b906000526020600020906002020160000154116117e8578092506117ef565b6001810391505b506117a7565b84828154811061180157fe5b9060005260206000209060020201600101549250505092915050565b81546000908390600019810190811061183257fe5b9060005260206000209060040201905042816000015410156118d2576040805160808101825242815260018381015460208084019182529383018681526003808701546001600160a01b03908116606087019081528a548087018c5560008c815298909820965160049098029096019687559251938601939093555160028501559151920180546001600160a01b031916929091169190911790556112da565b6002015550565b7fc8fcad8db84d3cc18b4c41d551ea0ee66dd599cde068d998e57d5e09332c131c90565b604051806080016040528060008152602001600081526020016000815260200160006001600160a01b031681525090565b80356001600160a01b038116811461033657600080fd5b803560ff8116811461033657600080fd5b600060208284031215611967578081fd5b610fab8261192e565b60008060408385031215611982578081fd5b61198b8361192e565b91506119996020840161192e565b90509250929050565b600080604083850312156119b4578182fd5b6119bd8361192e565b946020939093013593505050565b600080604083850312156119dd578182fd5b6119e68361192e565b915061199960208401611945565b600060208284031215611a05578081fd5b81518015158114610fab578182fd5b600060208284031215611a25578081fd5b5035919050565b600060208284031215611a3d578081fd5b5051919050565b60008060408385031215611a56578182fd5b50508035926020909101359150565b60008060008060808587031215611a7a578182fd5b8435935060208501359250611a9160408601611945565b9396929550929360600135925050565b6001600160a01b0391909116815260200190565b6001600160a01b0392831681529116602082015260400190565b6001600160a01b039384168152919092166020820152604081019190915260600190565b6001600160a01b03929092168252602082015260400190565b60208082526019908201527f4261726e3a20616c726561647920696e697469616c697a656400000000000000604082015260600190565b6020808252601c908201527f424f4e442061646472657373206d757374206e6f742062652030783000000000604082015260600190565b60208082526019908201527f546f6b656e20616c6c6f77616e636520746f6f20736d616c6c00000000000000604082015260600190565b6020808252601d908201527f416d6f756e74206d7573742062652067726561746572207468616e2030000000604082015260600190565b602080825260149082015273496e73756666696369656e742062616c616e636560601b604082015260600190565b60208082526016908201527521b0b713ba103232b632b3b0ba32903a379039b2b63360511b604082015260600190565b60208082526011908201527054696d657374616d7020746f6f2062696760781b604082015260600190565b602080825260169082015275155cd95c8818985b185b98d9481a5cc81b1bd8dad95960521b604082015260600190565b6020808252602f908201527f4e65772074696d657374616d70206c6f776572207468616e2063757272656e7460408201526e0206c6f636b2074696d657374616d7608c1b606082015260800190565b6020808252601690820152754e6f2062616c616e636520746f2064656c656761746560501b604082015260600190565b60208082526015908201527453656e64657220686173206e6f2062616c616e636560581b604082015260600190565b60208082526016908201527526bab9ba1031329031b7b73a3930b1ba1037bbb732b960511b604082015260600190565b6020808252601f908201527f54696d657374616d70206d75737420626520696e207468652066757475726500604082015260600190565b8151815260208083015190820152604080830151908201526060918201516001600160a01b03169181019190915260800190565b90815260200190565b918252602082015260400190565b9283526020830191909152604082015260600190565b92835260ff91909116602083015260408201526060019056fe536166654d6174683a206d756c7469706c69636174696f6e206f766572666c6f77a26469706673582212201e57c69b8e3eb9a590bd1fb4be5ba812ae54266b55a3e7cf5dadb2763754594b64736f6c63430007060033",
  "immutableReferences": {},
  "source": "// SPDX-License-Identifier: Apache-2.0\npragma solidity 0.7.6;\npragma experimental ABIEncoderV2;\n\nimport \"../interfaces/IBarn.sol\";\nimport \"../libraries/LibBarnStorage.sol\";\nimport \"../libraries/LibOwnership.sol\";\nimport \"@openzeppelin/contracts/math/SafeMath.sol\";\nimport \"@openzeppelin/contracts/token/ERC20/IERC20.sol\";\n\ncontract BarnFacet {\n    using SafeMath for uint256;\n\n    uint256 constant public MAX_LOCK = 365 days;\n    uint256 constant BASE_MULTIPLIER = 1e18;\n\n    event Deposit(address indexed user, uint256 amount, uint256 newBalance);\n    event Withdraw(address indexed user, uint256 amountWithdrew, uint256 amountLeft);\n    event Lock(address indexed user, uint256 timestamp);\n    event Timelock(address indexed user, uint256 timestamp, uint8 dataType, bytes32 data);\n    event UnlockTimelock(address indexed user, uint8 dataType);\n    event Delegate(address indexed from, address indexed to);\n    event DelegatedPowerIncreased(address indexed from, address indexed to, uint256 amount, uint256 to_newDelegatedPower);\n    event DelegatedPowerDecreased(address indexed from, address indexed to, uint256 amount, uint256 to_newDelegatedPower);\n\n    function initBarn(address _bond, address _rewards) public {\n        require(_bond != address(0), \"BOND address must not be 0x0\");\n\n        LibBarnStorage.Storage storage ds = LibBarnStorage.barnStorage();\n\n        require(!ds.initialized, \"Barn: already initialized\");\n        LibOwnership.enforceIsContractOwner();\n\n        ds.initialized = true;\n\n        ds.bond = IERC20(_bond);\n        ds.rewards = IRewards(_rewards);\n    }\n\n    // deposit allows a user to add more bond to his staked balance\n    function deposit(uint256 amount) public {\n        require(amount > 0, \"Amount must be greater than 0\");\n\n        LibBarnStorage.Storage storage ds = LibBarnStorage.barnStorage();\n        uint256 allowance = ds.bond.allowance(msg.sender, address(this));\n        require(allowance >= amount, \"Token allowance too small\");\n\n        // this must be called before the user's balance is updated so the rewards contract can calculate\n        // the amount owed correctly\n        if (address(ds.rewards) != address(0)) {\n            ds.rewards.registerUserAction(msg.sender);\n        }\n\n        uint256 newBalance = balanceOf(msg.sender).add(amount);\n        _updateUserBalance(ds.userStakeHistory[msg.sender], newBalance);\n        _updateLockedBond(bondStakedAtTs(block.timestamp).add(amount));\n\n        address delegatedTo = userDelegatedTo(msg.sender);\n        if (delegatedTo != address(0)) {\n            uint256 newDelegatedPower = delegatedPower(delegatedTo).add(amount);\n            _updateDelegatedPower(ds.delegatedPowerHistory[delegatedTo], newDelegatedPower);\n\n            emit DelegatedPowerIncreased(msg.sender, delegatedTo, amount, newDelegatedPower);\n        }\n\n        ds.bond.transferFrom(msg.sender, address(this), amount);\n\n        emit Deposit(msg.sender, amount, newBalance);\n    }\n\n    // withdraw allows a user to withdraw funds if the balance is not locked\n    function withdraw(uint256 amount) public {\n        require(amount > 0, \"Amount must be greater than 0\");\n        require(userLockedUntil(msg.sender) <= block.timestamp, \"User balance is locked\");\n\n        uint256 balance = balanceOf(msg.sender);\n        require(balance >= amount, \"Insufficient balance\");\n\n        LibBarnStorage.Storage storage ds = LibBarnStorage.barnStorage();\n\n        // this must be called before the user's balance is updated so the rewards contract can calculate\n        // the amount owed correctly\n        if (address(ds.rewards) != address(0)) {\n            ds.rewards.registerUserAction(msg.sender);\n        }\n\n        _updateUserBalance(ds.userStakeHistory[msg.sender], balance.sub(amount));\n        _updateLockedBond(bondStakedAtTs(block.timestamp).sub(amount));\n\n        address delegatedTo = userDelegatedTo(msg.sender);\n        if (delegatedTo != address(0)) {\n            uint256 newDelegatedPower = delegatedPower(delegatedTo).sub(amount);\n            _updateDelegatedPower(ds.delegatedPowerHistory[delegatedTo], newDelegatedPower);\n\n            emit DelegatedPowerDecreased(msg.sender, delegatedTo, amount, newDelegatedPower);\n        }\n\n        _deleteUserP2pKey(msg.sender);\n\n        ds.bond.transfer(msg.sender, amount);\n\n        emit Withdraw(msg.sender, amount, balance.sub(amount));\n    }\n\n    // lock a user's currently staked balance until timestamp & add the bonus to his voting power\n    function lock(uint256 timestamp) public {\n        require(timestamp > block.timestamp, \"Timestamp must be in the future\");\n        require(timestamp <= block.timestamp + MAX_LOCK, \"Timestamp too big\");\n        require(balanceOf(msg.sender) > 0, \"Sender has no balance\");\n\n        LibBarnStorage.Storage storage ds = LibBarnStorage.barnStorage();\n        LibBarnStorage.Stake[] storage checkpoints = ds.userStakeHistory[msg.sender];\n        LibBarnStorage.Stake storage currentStake = checkpoints[checkpoints.length - 1];\n\n        require(timestamp > currentStake.expiryTimestamp, \"New timestamp lower than current lock timestamp\");\n\n        _updateUserLock(checkpoints, timestamp);\n        emit Lock(msg.sender, timestamp);\n    }\n\n    function depositAndLock(uint256 amount, uint256 timestamp) public {\n        deposit(amount);\n        lock(timestamp);\n    }\n\n    function addOrAdjusttimelock(uint256 _amount, uint256 _timestamp, uint8 _type, bytes32 _data) public {\n        deposit(_amount);\n        lock(_timestamp);\n        _updateUserP2pKey(msg.sender, _type, _data);\n        emit Timelock(msg.sender, _timestamp, _type, _data);\n    }\n\n    // delegate allows a user to delegate his voting power to another user\n    function delegate(address to) public {\n        require(msg.sender != to, \"Can't delegate to self\");\n\n        uint256 senderBalance = balanceOf(msg.sender);\n        require(senderBalance > 0, \"No balance to delegate\");\n\n        LibBarnStorage.Storage storage ds = LibBarnStorage.barnStorage();\n\n        emit Delegate(msg.sender, to);\n\n        address delegatedTo = userDelegatedTo(msg.sender);\n        if (delegatedTo != address(0)) {\n            uint256 newDelegatedPower = delegatedPower(delegatedTo).sub(senderBalance);\n            _updateDelegatedPower(ds.delegatedPowerHistory[delegatedTo], newDelegatedPower);\n\n            emit DelegatedPowerDecreased(msg.sender, delegatedTo, senderBalance, newDelegatedPower);\n        }\n\n        if (to != address(0)) {\n            uint256 newDelegatedPower = delegatedPower(to).add(senderBalance);\n            _updateDelegatedPower(ds.delegatedPowerHistory[to], newDelegatedPower);\n\n            emit DelegatedPowerIncreased(msg.sender, to, senderBalance, newDelegatedPower);\n        }\n\n        _updateUserDelegatedTo(ds.userStakeHistory[msg.sender], to);\n    }\n\n    // stopDelegate allows a user to take back the delegated voting power\n    function stopDelegate() public {\n        return delegate(address(0));\n    }\n\n    // balanceOf returns the current BOND balance of a user (bonus not included)\n    function balanceOf(address user) public view returns (uint256) {\n        return balanceAtTs(user, block.timestamp);\n    }\n\n    // balanceAtTs returns the amount of BOND that the user currently staked (bonus NOT included)\n    function balanceAtTs(address user, uint256 timestamp) public view returns (uint256) {\n        LibBarnStorage.Stake memory stake = stakeAtTs(user, timestamp);\n\n        return stake.amount;\n    }\n\n    // stakeAtTs returns the Stake object of the user that was valid at `timestamp`\n    function stakeAtTs(address user, uint256 timestamp) public view returns (LibBarnStorage.Stake memory) {\n        LibBarnStorage.Storage storage ds = LibBarnStorage.barnStorage();\n        LibBarnStorage.Stake[] storage stakeHistory = ds.userStakeHistory[user];\n\n        if (stakeHistory.length == 0 || timestamp < stakeHistory[0].timestamp) {\n            return LibBarnStorage.Stake(block.timestamp, 0, block.timestamp, address(0));\n        }\n\n        uint256 min = 0;\n        uint256 max = stakeHistory.length - 1;\n\n        if (timestamp >= stakeHistory[max].timestamp) {\n            return stakeHistory[max];\n        }\n\n        // binary search of the value in the array\n        while (max > min) {\n            uint256 mid = (max + min + 1) / 2;\n            if (stakeHistory[mid].timestamp <= timestamp) {\n                min = mid;\n            } else {\n                max = mid - 1;\n            }\n        }\n\n        return stakeHistory[min];\n    }\n\n    // votingPower returns the voting power (bonus included) + delegated voting power for a user at the current block\n    function votingPower(address user) public view returns (uint256) {\n        return votingPowerAtTs(user, block.timestamp);\n    }\n\n    // votingPowerAtTs returns the voting power (bonus included) + delegated voting power for a user at a point in time\n    function votingPowerAtTs(address user, uint256 timestamp) public view returns (uint256) {\n        LibBarnStorage.Stake memory stake = stakeAtTs(user, timestamp);\n\n        uint256 ownVotingPower;\n\n        // if the user delegated his voting power to another user, then he doesn't have any voting power left\n        if (stake.delegatedTo != address(0)) {\n            ownVotingPower = 0;\n        } else {\n            uint256 balance = stake.amount;\n            uint256 multiplier = _stakeMultiplier(stake, timestamp);\n            ownVotingPower = balance.mul(multiplier).div(BASE_MULTIPLIER);\n        }\n\n        uint256 delegatedVotingPower = delegatedPowerAtTs(user, timestamp);\n\n        return ownVotingPower.add(delegatedVotingPower);\n    }\n\n    // bondStaked returns the total raw amount of BOND staked at the current block\n    function bondStaked() public view returns (uint256) {\n        return bondStakedAtTs(block.timestamp);\n    }\n\n    // bondStakedAtTs returns the total raw amount of BOND users have deposited into the contract\n    // it does not include any bonus\n    function bondStakedAtTs(uint256 timestamp) public view returns (uint256) {\n        return _checkpointsBinarySearch(LibBarnStorage.barnStorage().bondStakedHistory, timestamp);\n    }\n\n    // delegatedPower returns the total voting power that a user received from other users\n    function delegatedPower(address user) public view returns (uint256) {\n        return delegatedPowerAtTs(user, block.timestamp);\n    }\n\n    // delegatedPowerAtTs returns the total voting power that a user received from other users at a point in time\n    function delegatedPowerAtTs(address user, uint256 timestamp) public view returns (uint256) {\n        return _checkpointsBinarySearch(LibBarnStorage.barnStorage().delegatedPowerHistory[user], timestamp);\n    }\n\n    // same as multiplierAtTs but for the current block timestamp\n    function multiplierOf(address user) public view returns (uint256) {\n        return multiplierAtTs(user, block.timestamp);\n    }\n\n    // multiplierAtTs calculates the multiplier at a given timestamp based on the user's stake a the given timestamp\n    // it includes the decay mechanism\n    function multiplierAtTs(address user, uint256 timestamp) public view returns (uint256) {\n        LibBarnStorage.Stake memory stake = stakeAtTs(user, timestamp);\n\n        return _stakeMultiplier(stake, timestamp);\n    }\n\n    // userLockedUntil returns the timestamp until the user's balance is locked\n    function userLockedUntil(address user) public view returns (uint256) {\n        LibBarnStorage.Stake memory c = stakeAtTs(user, block.timestamp);\n\n        return c.expiryTimestamp;\n    }\n\n    function checkTimeLock(address _user, uint8 _type) public view returns (uint256 amount, uint256 expiry, bytes32 data) {\n        LibBarnStorage.NodeInfo memory nInfo = LibBarnStorage.barnStorage().nodeInfo[_user];\n        if (nInfo.dataType == _type) {\n            amount = balanceOf(_user);\n            expiry = userLockedUntil(_user);\n            data = nInfo.p2pkey;\n        }\n    }\n\n    // userDelegatedTo returns the address to which a user delegated their voting power; address(0) if not delegated\n    function userDelegatedTo(address user) public view returns (address) {\n        LibBarnStorage.Stake memory c = stakeAtTs(user, block.timestamp);\n\n        return c.delegatedTo;\n    }\n\n    // _checkpointsBinarySearch executes a binary search on a list of checkpoints that's sorted chronologically\n    // looking for the closest checkpoint that matches the specified timestamp\n    function _checkpointsBinarySearch(LibBarnStorage.Checkpoint[] storage checkpoints, uint256 timestamp) internal view returns (uint256) {\n        if (checkpoints.length == 0 || timestamp < checkpoints[0].timestamp) {\n            return 0;\n        }\n\n        uint256 min = 0;\n        uint256 max = checkpoints.length - 1;\n\n        if (timestamp >= checkpoints[max].timestamp) {\n            return checkpoints[max].amount;\n        }\n\n        // binary search of the value in the array\n        while (max > min) {\n            uint256 mid = (max + min + 1) / 2;\n            if (checkpoints[mid].timestamp <= timestamp) {\n                min = mid;\n            } else {\n                max = mid - 1;\n            }\n        }\n\n        return checkpoints[min].amount;\n    }\n\n    // _stakeMultiplier calculates the multiplier for the given stake at the given timestamp\n    function _stakeMultiplier(LibBarnStorage.Stake memory stake, uint256 timestamp) internal view returns (uint256) {\n        if (timestamp >= stake.expiryTimestamp) {\n            return BASE_MULTIPLIER;\n        }\n\n        uint256 diff = stake.expiryTimestamp - timestamp;\n        if (diff >= MAX_LOCK) {\n            return BASE_MULTIPLIER.mul(2);\n        }\n\n        return BASE_MULTIPLIER.add(diff.mul(BASE_MULTIPLIER).div(MAX_LOCK));\n    }\n\n    // _updateUserBalance manages an array of checkpoints\n    // if there's already a checkpoint for the same timestamp, the amount is updated\n    // otherwise, a new checkpoint is inserted\n    function _updateUserBalance(LibBarnStorage.Stake[] storage checkpoints, uint256 amount) internal {\n        if (checkpoints.length == 0) {\n            checkpoints.push(LibBarnStorage.Stake(block.timestamp, amount, block.timestamp, address(0)));\n        } else {\n            LibBarnStorage.Stake storage old = checkpoints[checkpoints.length - 1];\n\n            if (old.timestamp == block.timestamp) {\n                old.amount = amount;\n            } else {\n                checkpoints.push(LibBarnStorage.Stake(block.timestamp, amount, old.expiryTimestamp, old.delegatedTo));\n            }\n        }\n    }\n\n    // _updateUserLock updates the expiry timestamp on the user's stake\n    // it assumes that if the user already has a balance, which is checked for in the lock function\n    // then there must be at least 1 checkpoint\n    function _updateUserLock(LibBarnStorage.Stake[] storage checkpoints, uint256 expiryTimestamp) internal {\n        LibBarnStorage.Stake storage old = checkpoints[checkpoints.length - 1];\n\n        if (old.timestamp < block.timestamp) {\n            checkpoints.push(LibBarnStorage.Stake(block.timestamp, old.amount, expiryTimestamp, old.delegatedTo));\n        } else {\n            old.expiryTimestamp = expiryTimestamp;\n        }\n    }\n\n    // _updateUserDelegatedTo updates the delegateTo property on the user's stake\n    // it assumes that if the user already has a balance, which is checked for in the delegate function\n    // then there must be at least 1 checkpoint\n    function _updateUserDelegatedTo(LibBarnStorage.Stake[] storage checkpoints, address to) internal {\n        LibBarnStorage.Stake storage old = checkpoints[checkpoints.length - 1];\n\n        if (old.timestamp < block.timestamp) {\n            checkpoints.push(LibBarnStorage.Stake(block.timestamp, old.amount, old.expiryTimestamp, to));\n        } else {\n            old.delegatedTo = to;\n        }\n    }\n\n    // _updateDelegatedPower updates the power delegated TO the user in the checkpoints history\n    function _updateDelegatedPower(LibBarnStorage.Checkpoint[] storage checkpoints, uint256 amount) internal {\n        if (checkpoints.length == 0 || checkpoints[checkpoints.length - 1].timestamp < block.timestamp) {\n            checkpoints.push(LibBarnStorage.Checkpoint(block.timestamp, amount));\n        } else {\n            LibBarnStorage.Checkpoint storage old = checkpoints[checkpoints.length - 1];\n            old.amount = amount;\n        }\n    }\n\n    // _updateLockedBond stores the new `amount` into the BOND locked history\n    function _updateLockedBond(uint256 amount) internal {\n        LibBarnStorage.Storage storage ds = LibBarnStorage.barnStorage();\n\n        if (ds.bondStakedHistory.length == 0 || ds.bondStakedHistory[ds.bondStakedHistory.length - 1].timestamp < block.timestamp) {\n            ds.bondStakedHistory.push(LibBarnStorage.Checkpoint(block.timestamp, amount));\n        } else {\n            LibBarnStorage.Checkpoint storage old = ds.bondStakedHistory[ds.bondStakedHistory.length - 1];\n            old.amount = amount;\n        }\n    }\n\n    function _updateUserP2pKey(address _user, uint8 _type, bytes32 _data) internal {\n        LibBarnStorage.Storage storage ds = LibBarnStorage.barnStorage();\n        LibBarnStorage.NodeInfo storage nInfo = ds.nodeInfo[_user];\n        nInfo.p2pkey = _data;\n        nInfo.dataType = _type;\n    }\n\n    function _deleteUserP2pKey(address _user) internal {\n        LibBarnStorage.Storage storage ds = LibBarnStorage.barnStorage();\n        delete ds.nodeInfo[_user];\n    }\n}\n",
  "sourcePath": "/mnt/c/pr0/SWINGBY/BARN/contracts/facets/BarnFacet.sol",
  "compiler": {
    "name": "solc",
    "version": "0.7.6+commit.7338295f.Emscripten.clang"
  },
  "schemaVersion": "3.4.3",
  "updatedAt": "2021-12-06T21:23:56.902Z",
  "devdoc": {
    "kind": "dev",
    "methods": {},
    "version": 1
  },
  "userdoc": {
    "kind": "user",
    "methods": {},
    "version": 1
  }
}