{
  "contractName": "BarnMock",
  "abi": [
    {
      "inputs": [],
      "name": "bondStaked",
      "outputs": [
        {
          "internalType": "uint256",
          "name": "",
          "type": "uint256"
        }
      ],
      "stateMutability": "view",
      "type": "function"
    },
    {
      "inputs": [],
      "name": "r",
      "outputs": [
        {
          "internalType": "contract IRewards",
          "name": "",
          "type": "address"
        }
      ],
      "stateMutability": "view",
      "type": "function"
    },
    {
      "inputs": [
        {
          "internalType": "address",
          "name": "rewards",
          "type": "address"
        }
      ],
      "name": "setRewards",
      "outputs": [],
      "stateMutability": "nonpayable",
      "type": "function"
    },
    {
      "inputs": [
        {
          "internalType": "address",
          "name": "user",
          "type": "address"
        }
      ],
      "name": "callRegisterUserAction",
      "outputs": [],
      "stateMutability": "nonpayable",
      "type": "function"
    },
    {
      "inputs": [
        {
          "internalType": "address",
          "name": "user",
          "type": "address"
        },
        {
          "internalType": "uint256",
          "name": "amount",
          "type": "uint256"
        }
      ],
      "name": "deposit",
      "outputs": [],
      "stateMutability": "nonpayable",
      "type": "function"
    },
    {
      "inputs": [
        {
          "internalType": "address",
          "name": "user",
          "type": "address"
        },
        {
          "internalType": "uint256",
          "name": "amount",
          "type": "uint256"
        }
      ],
      "name": "withdraw",
      "outputs": [],
      "stateMutability": "nonpayable",
      "type": "function"
    },
    {
      "inputs": [
        {
          "internalType": "address",
          "name": "user",
          "type": "address"
        }
      ],
      "name": "balanceOf",
      "outputs": [
        {
          "internalType": "uint256",
          "name": "",
          "type": "uint256"
        }
      ],
      "stateMutability": "view",
      "type": "function"
    }
  ],
  "bytecode": "0x608060405234801561001057600080fd5b50610346806100206000396000f3fe608060405234801561001057600080fd5b506004361061007d5760003560e01c8063c2077e811161005b578063c2077e811461010c578063ec38a86214610114578063f0bcb6cd1461013a578063f3fef3a3146101605761007d565b806347e7ef24146100825780636c8ae38c146100b057806370a08231146100d4575b600080fd5b6100ae6004803603604081101561009857600080fd5b506001600160a01b03813516906020013561018c565b005b6100b86101bf565b604080516001600160a01b039092168252519081900360200190f35b6100fa600480360360208110156100ea57600080fd5b50356001600160a01b03166101ce565b60408051918252519081900360200190f35b6100fa6101e9565b6100ae6004803603602081101561012a57600080fd5b50356001600160a01b03166101ef565b6100ae6004803603602081101561015057600080fd5b50356001600160a01b0316610211565b6100ae6004803603604081101561017657600080fd5b506001600160a01b038135169060200135610277565b61019582610211565b6001600160a01b039091166000908152600260205260409020805482019055600180549091019055565b6000546001600160a01b031681565b6001600160a01b031660009081526002602052604090205490565b60015481565b600080546001600160a01b0319166001600160a01b0392909216919091179055565b60008054604080516366a7d82160e01b81526001600160a01b038581166004830152915191909216926366a7d821926024808201939182900301818387803b15801561025c57600080fd5b505af1158015610270573d6000803e3d6000fd5b5050505050565b6001600160a01b0382166000908152600260205260409020548111156102db576040805162461bcd60e51b8152602060048201526014602482015273696e73756666696369656e742062616c616e636560601b604482015290519081900360640190fd5b6102e482610211565b6001600160a01b039091166000908152600260205260409020805482900390556001805491909103905556fea26469706673582212202ac3ab4ae3599e767c85e1cac4758f7bdae9db50099a86108e26fa48a6055a1c64736f6c63430007060033",
  "immutableReferences": {},
  "source": "// SPDX-License-Identifier: Apache-2.0\npragma solidity 0.7.6;\n\nimport \"../interfaces/IRewards.sol\";\n\ncontract BarnMock {\n    IRewards public r;\n    uint256 public bondStaked;\n    mapping(address => uint256) private balances;\n\n    function setRewards(address rewards) public {\n        r = IRewards(rewards);\n    }\n\n    function callRegisterUserAction(address user) public {\n        return r.registerUserAction(user);\n    }\n\n    function deposit(address user, uint256 amount) public {\n        callRegisterUserAction(user);\n\n        balances[user] = balances[user] + amount;\n        bondStaked = bondStaked + amount;\n    }\n\n    function withdraw(address user, uint256 amount) public {\n        require(balances[user] >= amount, \"insufficient balance\");\n\n        callRegisterUserAction(user);\n\n        balances[user] = balances[user] - amount;\n        bondStaked = bondStaked - amount;\n    }\n\n    function balanceOf(address user) public view returns (uint256) {\n        return balances[user];\n    }\n}\n",
  "sourcePath": "/mnt/c/pr0/SWINGBY/BARN/contracts/mocks/BarnMock.sol",
  "compiler": {
    "name": "solc",
    "version": "0.7.6+commit.7338295f.Emscripten.clang"
  },
  "schemaVersion": "3.4.3",
  "updatedAt": "2021-12-06T21:23:57.032Z",
  "devdoc": {
    "kind": "dev",
    "methods": {},
    "version": 1
  },
  "userdoc": {
    "kind": "user",
    "methods": {},
    "version": 1
  }
}