{
  "contractName": "ChangeRewardsFacet",
  "abi": [
    {
      "inputs": [
        {
          "internalType": "address",
          "name": "_rewards",
          "type": "address"
        }
      ],
      "name": "changeRewardsAddress",
      "outputs": [],
      "stateMutability": "nonpayable",
      "type": "function"
    }
  ],
  "bytecode": "0x608060405234801561001057600080fd5b50610196806100206000396000f3fe608060405234801561001057600080fd5b506004361061002b5760003560e01c80638d240d8b14610030575b600080fd5b61004361003e366004610102565b610045565b005b61004d61007c565b60006100576100ba565b60060180546001600160a01b0319166001600160a01b03939093169290921790915550565b6100846100de565b600301546001600160a01b031633146100b85760405162461bcd60e51b81526004016100af90610130565b60405180910390fd5b565b7fe96c66e59227df98cba2247b26f0b557ed0f64708a0822054b1f9fc99942071590565b7fc8fcad8db84d3cc18b4c41d551ea0ee66dd599cde068d998e57d5e09332c131c90565b600060208284031215610113578081fd5b81356001600160a01b0381168114610129578182fd5b9392505050565b60208082526016908201527526bab9ba1031329031b7b73a3930b1ba1037bbb732b960511b60408201526060019056fea2646970667358221220714069b47136a634565f39e62fce93fa34bb9ce3a01439b19c7d3e8ccd1519bf64736f6c63430007060033",
  "immutableReferences": {},
  "source": "// SPDX-License-Identifier: Apache-2.0\npragma solidity 0.7.6;\npragma experimental ABIEncoderV2;\n\nimport \"../libraries/LibBarnStorage.sol\";\nimport \"../libraries/LibOwnership.sol\";\n\ncontract ChangeRewardsFacet {\n    function changeRewardsAddress(address _rewards) public {\n        LibOwnership.enforceIsContractOwner();\n\n        LibBarnStorage.Storage storage ds = LibBarnStorage.barnStorage();\n        ds.rewards = IRewards(_rewards);\n    }\n}\n",
  "sourcePath": "/mnt/c/pr0/SWINGBY/BARN/contracts/facets/ChangeRewardsFacet.sol",
  "compiler": {
    "name": "solc",
    "version": "0.7.6+commit.7338295f.Emscripten.clang"
  },
  "schemaVersion": "3.4.3",
  "updatedAt": "2021-12-06T21:23:56.926Z",
  "devdoc": {
    "kind": "dev",
    "methods": {},
    "version": 1
  },
  "userdoc": {
    "kind": "user",
    "methods": {},
    "version": 1
  }
}