{
  "contractName": "DiamondLoupeFacet",
  "abi": [
    {
      "inputs": [],
      "name": "facets",
      "outputs": [
        {
          "components": [
            {
              "internalType": "address",
              "name": "facetAddress",
              "type": "address"
            },
            {
              "internalType": "bytes4[]",
              "name": "functionSelectors",
              "type": "bytes4[]"
            }
          ],
          "internalType": "struct IDiamondLoupe.Facet[]",
          "name": "facets_",
          "type": "tuple[]"
        }
      ],
      "stateMutability": "view",
      "type": "function"
    },
    {
      "inputs": [
        {
          "internalType": "address",
          "name": "_facet",
          "type": "address"
        }
      ],
      "name": "facetFunctionSelectors",
      "outputs": [
        {
          "internalType": "bytes4[]",
          "name": "_facetFunctionSelectors",
          "type": "bytes4[]"
        }
      ],
      "stateMutability": "view",
      "type": "function"
    },
    {
      "inputs": [],
      "name": "facetAddresses",
      "outputs": [
        {
          "internalType": "address[]",
          "name": "facetAddresses_",
          "type": "address[]"
        }
      ],
      "stateMutability": "view",
      "type": "function"
    },
    {
      "inputs": [
        {
          "internalType": "bytes4",
          "name": "_functionSelector",
          "type": "bytes4"
        }
      ],
      "name": "facetAddress",
      "outputs": [
        {
          "internalType": "address",
          "name": "facetAddress_",
          "type": "address"
        }
      ],
      "stateMutability": "view",
      "type": "function"
    },
    {
      "inputs": [
        {
          "internalType": "bytes4",
          "name": "_interfaceId",
          "type": "bytes4"
        }
      ],
      "name": "supportsInterface",
      "outputs": [
        {
          "internalType": "bool",
          "name": "",
          "type": "bool"
        }
      ],
      "stateMutability": "view",
      "type": "function"
    }
  ],
  "bytecode": "0x608060405234801561001057600080fd5b5061091a806100206000396000f3fe608060405234801561001057600080fd5b50600436106100575760003560e01c806301ffc9a71461005c57806352ef6b2c146100855780637a0ed6271461009a578063adfca15e146100af578063cdffacc6146100cf575b600080fd5b61006f61006a36600461077f565b6100ef565b60405161007c91906108d9565b60405180910390f35b61008d610122565b60405161007c91906107ff565b6100a2610275565b60405161007c919061085f565b6100c26100bd366004610751565b6105d7565b60405161007c919061084c565b6100e26100dd36600461077f565b6106e0565b60405161007c91906107eb565b6000806100fa610715565b6001600160e01b0319841660009081526002909101602052604090205460ff16915050919050565b6060600061012e610715565b60018101549091508067ffffffffffffffff8111801561014d57600080fd5b50604051908082528060200260200182016040528015610177578160200160208202803683370190505b5092506000805b8281101561026b57600084600101828154811061019757fe5b6000918252602080832060088304015460079092166004026101000a90910460e01b6001600160e01b0319811683529087905260408220549092506001600160a01b031690805b85811015610224578881815181106101f257fe5b60200260200101516001600160a01b0316836001600160a01b0316141561021c5760019150610224565b6001016101de565b5080156102345750610263915050565b8188868151811061024157fe5b6001600160a01b03909216602092830291909101909101525050600190920191505b60010161017e565b5080845250505090565b60606000610281610715565b60018101549091508067ffffffffffffffff811180156102a057600080fd5b506040519080825280602002602001820160405280156102da57816020015b6102c7610739565b8152602001906001900390816102bf5790505b50925060008167ffffffffffffffff811180156102f657600080fd5b50604051908082528060200260200182016040528015610320578160200160208202803683370190505b5090506000805b8381101561057c57600085600101828154811061034057fe5b6000918252602080832060088304015460079092166004026101000a90910460e01b6001600160e01b0319811683529088905260408220549092506001600160a01b031690805b8581101561047157826001600160a01b03168a82815181106103a557fe5b6020026020010151600001516001600160a01b0316141561046957838a82815181106103cd57fe5b6020026020010151602001518883815181106103e557fe5b602002602001015160ff16815181106103fa57fe5b60200260200101906001600160e01b03191690816001600160e01b0319168152505060ff87828151811061042a57fe5b602002602001015160ff161061043f57600080fd5b86818151811061044b57fe5b60209081029190910101805160ff6001918201169091529150610471565b600101610387565b5080156104815750610574915050565b8189868151811061048e57fe5b60209081029190910101516001600160a01b0390911690528667ffffffffffffffff811180156104bd57600080fd5b506040519080825280602002602001820160405280156104e7578160200160208202803683370190505b508986815181106104f457fe5b6020026020010151602001819052508289868151811061051057fe5b60200260200101516020015160008151811061052857fe5b60200260200101906001600160e01b03191690816001600160e01b03191681525050600186868151811061055857fe5b60ff909216602092830291909101909101525050600190920191505b600101610327565b5060005b818110156105cc57600083828151811061059657fe5b602002602001015160ff16905060008783815181106105b157fe5b60209081029190910181015101519190915250600101610580565b508085525050505090565b606060006105e3610715565b600181015490915060008167ffffffffffffffff8111801561060457600080fd5b5060405190808252806020026020018201604052801561062e578160200160208202803683370190505b50935060005b828110156106d557600084600101828154811061064d57fe5b6000918252602080832060088304015460079092166004026101000a90910460e01b6001600160e01b031981168352908790526040909120549091506001600160a01b039081169088168114156106cb57818785815181106106ab57fe5b6001600160e01b0319909216602092830291909101909101526001909301925b5050600101610634565b508352509092915050565b6000806106eb610715565b6001600160e01b03199093166000908152602093909352505060409020546001600160a01b031690565b7fc8fcad8db84d3cc18b4c41d551ea0ee66dd599cde068d998e57d5e09332c131c90565b60408051808201909152600081526060602082015290565b600060208284031215610762578081fd5b81356001600160a01b0381168114610778578182fd5b9392505050565b600060208284031215610790578081fd5b81356001600160e01b031981168114610778578182fd5b6000815180845260208085019450808401835b838110156107e05781516001600160e01b031916875295820195908201906001016107ba565b509495945050505050565b6001600160a01b0391909116815260200190565b6020808252825182820181905260009190848201906040850190845b818110156108405783516001600160a01b03168352928401929184019160010161081b565b50909695505050505050565b60006020825261077860208301846107a7565b60208082528251828201819052600091906040908185019080840286018301878501865b838110156108cb57888303603f19018552815180516001600160a01b031684528701518784018790526108b8878501826107a7565b9588019593505090860190600101610883565b509098975050505050505050565b90151581526020019056fea2646970667358221220213b0ddd6df38eae454cc1f424ae473816d046925d559579b30fa17b8c0673cb64736f6c63430007060033",
  "immutableReferences": {},
  "source": "// SPDX-License-Identifier: Apache-2.0\npragma solidity 0.7.6;\npragma experimental ABIEncoderV2;\n\nimport \"../libraries/LibDiamondStorage.sol\";\nimport \"../interfaces/IDiamondLoupe.sol\";\nimport \"../interfaces/IERC165.sol\";\n\ncontract DiamondLoupeFacet is IDiamondLoupe, IERC165 {\n    // Diamond Loupe Functions\n    ////////////////////////////////////////////////////////////////////\n    /// These functions are expected to be called frequently by tools.\n    //\n    // struct Facet {\n    //     address facetAddress;\n    //     bytes4[] functionSelectors;\n    // }\n    /// @notice Gets all facets and their selectors.\n    /// @return facets_ Facet\n    function facets() external override view returns (Facet[] memory facets_) {\n        LibDiamondStorage.DiamondStorage storage ds = LibDiamondStorage.diamondStorage();\n        uint256 selectorCount = ds.selectors.length;\n\n        // create an array set to the maximum size possible\n        facets_ = new Facet[](selectorCount);\n\n        // create an array for counting the number of selectors for each facet\n        uint8[] memory numFacetSelectors = new uint8[](selectorCount);\n\n        // total number of facets\n        uint256 numFacets;\n\n        // loop through function selectors\n        for (uint256 selectorIndex; selectorIndex < selectorCount; selectorIndex++) {\n            bytes4 selector = ds.selectors[selectorIndex];\n            address facetAddress_ = ds.facets[selector].facetAddress;\n            bool continueLoop = false;\n\n            // find the functionSelectors array for selector and add selector to it\n            for (uint256 facetIndex; facetIndex < numFacets; facetIndex++) {\n                if (facets_[facetIndex].facetAddress == facetAddress_) {\n                    facets_[facetIndex].functionSelectors[numFacetSelectors[facetIndex]] = selector;\n                    // probably will never have more than 256 functions from one facet contract\n                    require(numFacetSelectors[facetIndex] < 255);\n                    numFacetSelectors[facetIndex]++;\n                    continueLoop = true;\n                    break;\n                }\n            }\n\n            // if functionSelectors array exists for selector then continue loop\n            if (continueLoop) {\n                continueLoop = false;\n                continue;\n            }\n\n            // create a new functionSelectors array for selector\n            facets_[numFacets].facetAddress = facetAddress_;\n            facets_[numFacets].functionSelectors = new bytes4[](selectorCount);\n            facets_[numFacets].functionSelectors[0] = selector;\n\n            numFacetSelectors[numFacets] = 1;\n            numFacets++;\n        }\n\n        for (uint256 facetIndex; facetIndex < numFacets; facetIndex++) {\n            uint256 numSelectors = numFacetSelectors[facetIndex];\n            bytes4[] memory selectors = facets_[facetIndex].functionSelectors;\n            // setting the number of selectors\n            assembly {\n                mstore(selectors, numSelectors)\n            }\n        }\n\n        // setting the number of facets\n        assembly {\n            mstore(facets_, numFacets)\n        }\n    }\n\n    /// @notice Gets all the function selectors supported by a specific facet.\n    /// @param _facet The facet address.\n    /// @return _facetFunctionSelectors The selectors associated with a facet address.\n    function facetFunctionSelectors(address _facet) external override view returns (bytes4[] memory _facetFunctionSelectors) {\n        LibDiamondStorage.DiamondStorage storage ds = LibDiamondStorage.diamondStorage();\n\n        uint256 selectorCount = ds.selectors.length;\n        uint256 numSelectors;\n        _facetFunctionSelectors = new bytes4[](selectorCount);\n\n        // loop through function selectors\n        for (uint256 selectorIndex; selectorIndex < selectorCount; selectorIndex++) {\n            bytes4 selector = ds.selectors[selectorIndex];\n            address facetAddress_ = ds.facets[selector].facetAddress;\n            if (_facet == facetAddress_) {\n                _facetFunctionSelectors[numSelectors] = selector;\n                numSelectors++;\n            }\n        }\n\n        // Set the number of selectors in the array\n        assembly {\n            mstore(_facetFunctionSelectors, numSelectors)\n        }\n    }\n\n    /// @notice Get all the facet addresses used by a diamond.\n    /// @return facetAddresses_\n    function facetAddresses() external override view returns (address[] memory facetAddresses_) {\n        LibDiamondStorage.DiamondStorage storage ds = LibDiamondStorage.diamondStorage();\n\n        uint256 selectorCount = ds.selectors.length;\n        // create an array set to the maximum size possible\n        facetAddresses_ = new address[](selectorCount);\n        uint256 numFacets;\n\n        // loop through function selectors\n        for (uint256 selectorIndex; selectorIndex < selectorCount; selectorIndex++) {\n            bytes4 selector = ds.selectors[selectorIndex];\n            address facetAddress_ = ds.facets[selector].facetAddress;\n            bool continueLoop = false;\n\n            // see if we have collected the address already and break out of loop if we have\n            for (uint256 facetIndex; facetIndex < numFacets; facetIndex++) {\n                if (facetAddress_ == facetAddresses_[facetIndex]) {\n                    continueLoop = true;\n                    break;\n                }\n            }\n\n            // continue loop if we already have the address\n            if (continueLoop) {\n                continueLoop = false;\n                continue;\n            }\n\n            // include address\n            facetAddresses_[numFacets] = facetAddress_;\n            numFacets++;\n        }\n\n        // Set the number of facet addresses in the array\n        assembly {\n            mstore(facetAddresses_, numFacets)\n        }\n    }\n\n    /// @notice Gets the facet address that supports the given selector.\n    /// @dev If facet is not found return address(0).\n    /// @param _functionSelector The function selector.\n    /// @return facetAddress_ The facet address.\n    function facetAddress(bytes4 _functionSelector) external override view returns (address facetAddress_) {\n        LibDiamondStorage.DiamondStorage storage ds = LibDiamondStorage.diamondStorage();\n        facetAddress_ = ds.facets[_functionSelector].facetAddress;\n    }\n\n    // This implements ERC-165.\n    function supportsInterface(bytes4 _interfaceId) external override view returns (bool) {\n        LibDiamondStorage.DiamondStorage storage ds = LibDiamondStorage.diamondStorage();\n        return ds.supportedInterfaces[_interfaceId];\n    }\n}\n",
  "sourcePath": "/mnt/c/pr0/SWINGBY/BARN/contracts/facets/DiamondLoupeFacet.sol",
  "compiler": {
    "name": "solc",
    "version": "0.7.6+commit.7338295f.Emscripten.clang"
  },
  "schemaVersion": "3.4.3",
  "updatedAt": "2021-12-06T21:23:56.943Z",
  "devdoc": {
    "kind": "dev",
    "methods": {
      "facetAddress(bytes4)": {
        "details": "If facet is not found return address(0).",
        "params": {
          "_functionSelector": "The function selector."
        },
        "returns": {
          "facetAddress_": "The facet address."
        }
      },
      "facetAddresses()": {
        "returns": {
          "facetAddresses_": "facetAddresses_"
        }
      },
      "facetFunctionSelectors(address)": {
        "params": {
          "_facet": "The facet address."
        },
        "returns": {
          "_facetFunctionSelectors": "The selectors associated with a facet address."
        }
      },
      "facets()": {
        "returns": {
          "facets_": "Facet"
        }
      }
    },
    "version": 1
  },
  "userdoc": {
    "kind": "user",
    "methods": {
      "facetAddress(bytes4)": {
        "notice": "Gets the facet address that supports the given selector."
      },
      "facetAddresses()": {
        "notice": "Get all the facet addresses used by a diamond."
      },
      "facetFunctionSelectors(address)": {
        "notice": "Gets all the function selectors supported by a specific facet."
      },
      "facets()": {
        "notice": "Gets all facets and their selectors."
      }
    },
    "version": 1
  }
}