{
  "contractName": "ERC20Mock",
  "abi": [
    {
      "anonymous": false,
      "inputs": [
        {
          "indexed": true,
          "internalType": "address",
          "name": "owner",
          "type": "address"
        },
        {
          "indexed": true,
          "internalType": "address",
          "name": "spender",
          "type": "address"
        },
        {
          "indexed": false,
          "internalType": "uint256",
          "name": "value",
          "type": "uint256"
        }
      ],
      "name": "Approval",
      "type": "event"
    },
    {
      "anonymous": false,
      "inputs": [
        {
          "indexed": true,
          "internalType": "address",
          "name": "from",
          "type": "address"
        },
        {
          "indexed": true,
          "internalType": "address",
          "name": "to",
          "type": "address"
        },
        {
          "indexed": false,
          "internalType": "uint256",
          "name": "value",
          "type": "uint256"
        }
      ],
      "name": "Transfer",
      "type": "event"
    },
    {
      "inputs": [
        {
          "internalType": "address",
          "name": "owner",
          "type": "address"
        },
        {
          "internalType": "address",
          "name": "spender",
          "type": "address"
        }
      ],
      "name": "allowance",
      "outputs": [
        {
          "internalType": "uint256",
          "name": "",
          "type": "uint256"
        }
      ],
      "stateMutability": "view",
      "type": "function"
    },
    {
      "inputs": [
        {
          "internalType": "address",
          "name": "spender",
          "type": "address"
        },
        {
          "internalType": "uint256",
          "name": "amount",
          "type": "uint256"
        }
      ],
      "name": "approve",
      "outputs": [
        {
          "internalType": "bool",
          "name": "",
          "type": "bool"
        }
      ],
      "stateMutability": "nonpayable",
      "type": "function"
    },
    {
      "inputs": [
        {
          "internalType": "address",
          "name": "account",
          "type": "address"
        }
      ],
      "name": "balanceOf",
      "outputs": [
        {
          "internalType": "uint256",
          "name": "",
          "type": "uint256"
        }
      ],
      "stateMutability": "view",
      "type": "function"
    },
    {
      "inputs": [],
      "name": "decimals",
      "outputs": [
        {
          "internalType": "uint8",
          "name": "",
          "type": "uint8"
        }
      ],
      "stateMutability": "view",
      "type": "function"
    },
    {
      "inputs": [
        {
          "internalType": "address",
          "name": "spender",
          "type": "address"
        },
        {
          "internalType": "uint256",
          "name": "subtractedValue",
          "type": "uint256"
        }
      ],
      "name": "decreaseAllowance",
      "outputs": [
        {
          "internalType": "bool",
          "name": "",
          "type": "bool"
        }
      ],
      "stateMutability": "nonpayable",
      "type": "function"
    },
    {
      "inputs": [
        {
          "internalType": "address",
          "name": "spender",
          "type": "address"
        },
        {
          "internalType": "uint256",
          "name": "addedValue",
          "type": "uint256"
        }
      ],
      "name": "increaseAllowance",
      "outputs": [
        {
          "internalType": "bool",
          "name": "",
          "type": "bool"
        }
      ],
      "stateMutability": "nonpayable",
      "type": "function"
    },
    {
      "inputs": [],
      "name": "name",
      "outputs": [
        {
          "internalType": "string",
          "name": "",
          "type": "string"
        }
      ],
      "stateMutability": "view",
      "type": "function"
    },
    {
      "inputs": [],
      "name": "symbol",
      "outputs": [
        {
          "internalType": "string",
          "name": "",
          "type": "string"
        }
      ],
      "stateMutability": "view",
      "type": "function"
    },
    {
      "inputs": [],
      "name": "totalSupply",
      "outputs": [
        {
          "internalType": "uint256",
          "name": "",
          "type": "uint256"
        }
      ],
      "stateMutability": "view",
      "type": "function"
    },
    {
      "inputs": [],
      "name": "transferAmount",
      "outputs": [
        {
          "internalType": "uint256",
          "name": "",
          "type": "uint256"
        }
      ],
      "stateMutability": "view",
      "type": "function"
    },
    {
      "inputs": [],
      "name": "transferCalled",
      "outputs": [
        {
          "internalType": "bool",
          "name": "",
          "type": "bool"
        }
      ],
      "stateMutability": "view",
      "type": "function"
    },
    {
      "inputs": [],
      "name": "transferFromCalled",
      "outputs": [
        {
          "internalType": "bool",
          "name": "",
          "type": "bool"
        }
      ],
      "stateMutability": "view",
      "type": "function"
    },
    {
      "inputs": [],
      "name": "transferRecipient",
      "outputs": [
        {
          "internalType": "address",
          "name": "",
          "type": "address"
        }
      ],
      "stateMutability": "view",
      "type": "function"
    },
    {
      "inputs": [
        {
          "internalType": "address",
          "name": "user",
          "type": "address"
        },
        {
          "internalType": "uint256",
          "name": "amount",
          "type": "uint256"
        }
      ],
      "name": "mint",
      "outputs": [],
      "stateMutability": "nonpayable",
      "type": "function"
    },
    {
      "inputs": [
        {
          "internalType": "address",
          "name": "user",
          "type": "address"
        },
        {
          "internalType": "uint256",
          "name": "amount",
          "type": "uint256"
        }
      ],
      "name": "burnFrom",
      "outputs": [],
      "stateMutability": "nonpayable",
      "type": "function"
    },
    {
      "inputs": [
        {
          "internalType": "address",
          "name": "sender",
          "type": "address"
        },
        {
          "internalType": "address",
          "name": "recipient",
          "type": "address"
        },
        {
          "internalType": "uint256",
          "name": "amount",
          "type": "uint256"
        }
      ],
      "name": "transferFrom",
      "outputs": [
        {
          "internalType": "bool",
          "name": "",
          "type": "bool"
        }
      ],
      "stateMutability": "nonpayable",
      "type": "function"
    },
    {
      "inputs": [
        {
          "internalType": "address",
          "name": "recipient",
          "type": "address"
        },
        {
          "internalType": "uint256",
          "name": "amount",
          "type": "uint256"
        }
      ],
      "name": "transfer",
      "outputs": [
        {
          "internalType": "bool",
          "name": "",
          "type": "bool"
        }
      ],
      "stateMutability": "nonpayable",
      "type": "function"
    }
  ],
  "bytecode": "0x608060405260058054610100600160b81b0319169055600060065534801561002657600080fd5b506040518060400160405280600981526020016845524332304d6f636b60b81b815250604051806040016040528060038152602001624d434b60e81b815250816003908051906020019061007b9291906100a4565b50805161008f9060049060208401906100a4565b50506005805460ff1916601217905550610145565b828054600181600116156101000203166002900490600052602060002090601f0160209004810192826100da5760008555610120565b82601f106100f357805160ff1916838001178555610120565b82800160010185558215610120579182015b82811115610120578251825591602001919060010190610105565b5061012c929150610130565b5090565b5b8082111561012c5760008155600101610131565b610e29806101546000396000f3fe608060405234801561001057600080fd5b506004361061010b5760003560e01c8063504d27fd116100a2578063a457c2d711610071578063a457c2d71461031b578063a62f5a3514610347578063a7d0a0271461034f578063a9059cbb14610357578063dd62ed3e146103835761010b565b8063504d27fd146102b957806370a08231146102c157806379cc6790146102e757806395d89b41146103135761010b565b806323b872dd116100de57806323b872dd1461020b578063313ce56714610241578063395093511461025f57806340c10f191461028b5761010b565b806306fdde0314610110578063095ea7b31461018d5780631248454c146101cd57806318160ddd146101f1575b600080fd5b6101186103b1565b6040805160208082528351818301528351919283929083019185019080838360005b8381101561015257818101518382015260200161013a565b50505050905090810190601f16801561017f5780820380516001836020036101000a031916815260200191505b509250505060405180910390f35b6101b9600480360360408110156101a357600080fd5b506001600160a01b038135169060200135610447565b604080519115158252519081900360200190f35b6101d5610464565b604080516001600160a01b039092168252519081900360200190f35b6101f961047a565b60408051918252519081900360200190f35b6101b96004803603606081101561022157600080fd5b506001600160a01b03813581169160208101359091169060400135610480565b6102496104a4565b6040805160ff9092168252519081900360200190f35b6101b96004803603604081101561027557600080fd5b506001600160a01b0381351690602001356104ad565b6102b7600480360360408110156102a157600080fd5b506001600160a01b038135169060200135610500565b005b6101f961050e565b6101f9600480360360208110156102d757600080fd5b50356001600160a01b0316610514565b6102b7600480360360408110156102fd57600080fd5b506001600160a01b03813516906020013561052f565b610118610539565b6101b96004803603604081101561033157600080fd5b506001600160a01b03813516906020013561059a565b6101b9610602565b6101b9610611565b6101b96004803603604081101561036d57600080fd5b506001600160a01b03813516906020013561061f565b6101f96004803603604081101561039957600080fd5b506001600160a01b0381358116916020013516610668565b60038054604080516020601f600260001961010060018816150201909516949094049384018190048102820181019092528281526060939092909183018282801561043d5780601f106104125761010080835404028352916020019161043d565b820191906000526020600020905b81548152906001019060200180831161042057829003601f168201915b5050505050905090565b600061045b610454610693565b8484610697565b50600192915050565b600554630100000090046001600160a01b031681565b60025490565b6005805461ff001916610100179055600061049c848484610783565b949350505050565b60055460ff1690565b600061045b6104ba610693565b846104fb85600160006104cb610693565b6001600160a01b03908116825260208083019390935260409182016000908120918c168152925290205490610805565b610697565b61050a828261085f565b5050565b60065481565b6001600160a01b031660009081526020819052604090205490565b61050a828261094f565b60048054604080516020601f600260001961010060018816150201909516949094049384018190048102820181019092528281526060939092909183018282801561043d5780601f106104125761010080835404028352916020019161043d565b600061045b6105a7610693565b846104fb85604051806060016040528060258152602001610dcf60259139600160006105d1610693565b6001600160a01b03908116825260208083019390935260409182016000908120918d16815292529020549190610a4b565b60055462010000900460ff1681565b600554610100900460ff1681565b600580546201000062ff000019909116176301000000600160b81b03191663010000006001600160a01b03851602179055600681905560006106618383610ae2565b9392505050565b6001600160a01b03918216600090815260016020908152604080832093909416825291909152205490565b3390565b6001600160a01b0383166106dc5760405162461bcd60e51b8152600401808060200182810382526024815260200180610dab6024913960400191505060405180910390fd5b6001600160a01b0382166107215760405162461bcd60e51b8152600401808060200182810382526022815260200180610cf56022913960400191505060405180910390fd5b6001600160a01b03808416600081815260016020908152604080832094871680845294825291829020859055815185815291517f8c5be1e5ebec7d5bd14f71427d1e84f3dd0314c0f7b2291e5b200ac8c7c3b9259281900390910190a3505050565b6000610790848484610af2565b6107fb8461079c610693565b6104fb85604051806060016040528060288152602001610d3d602891396001600160a01b038a166000908152600160205260408120906107da610693565b6001600160a01b031681526020810191909152604001600020549190610a4b565b5060019392505050565b600082820183811015610661576040805162461bcd60e51b815260206004820152601b60248201527f536166654d6174683a206164646974696f6e206f766572666c6f770000000000604482015290519081900360640190fd5b6001600160a01b0382166108ba576040805162461bcd60e51b815260206004820152601f60248201527f45524332303a206d696e7420746f20746865207a65726f206164647265737300604482015290519081900360640190fd5b6108c660008383610c4d565b6002546108d39082610805565b6002556001600160a01b0382166000908152602081905260409020546108f99082610805565b6001600160a01b0383166000818152602081815260408083209490945583518581529351929391927fddf252ad1be2c89b69c2b068fc378daa952ba7f163c4a11628f55a4df523b3ef9281900390910190a35050565b6001600160a01b0382166109945760405162461bcd60e51b8152600401808060200182810382526021815260200180610d656021913960400191505060405180910390fd5b6109a082600083610c4d565b6109dd81604051806060016040528060228152602001610cd3602291396001600160a01b0385166000908152602081905260409020549190610a4b565b6001600160a01b038316600090815260208190526040902055600254610a039082610c52565b6002556040805182815290516000916001600160a01b038516917fddf252ad1be2c89b69c2b068fc378daa952ba7f163c4a11628f55a4df523b3ef9181900360200190a35050565b60008184841115610ada5760405162461bcd60e51b81526004018080602001828103825283818151815260200191508051906020019080838360005b83811015610a9f578181015183820152602001610a87565b50505050905090810190601f168015610acc5780820380516001836020036101000a031916815260200191505b509250505060405180910390fd5b505050900390565b600061045b610aef610693565b84845b6001600160a01b038316610b375760405162461bcd60e51b8152600401808060200182810382526025815260200180610d866025913960400191505060405180910390fd5b6001600160a01b038216610b7c5760405162461bcd60e51b8152600401808060200182810382526023815260200180610cb06023913960400191505060405180910390fd5b610b87838383610c4d565b610bc481604051806060016040528060268152602001610d17602691396001600160a01b0386166000908152602081905260409020549190610a4b565b6001600160a01b038085166000908152602081905260408082209390935590841681522054610bf39082610805565b6001600160a01b038084166000818152602081815260409182902094909455805185815290519193928716927fddf252ad1be2c89b69c2b068fc378daa952ba7f163c4a11628f55a4df523b3ef92918290030190a3505050565b505050565b600082821115610ca9576040805162461bcd60e51b815260206004820152601e60248201527f536166654d6174683a207375627472616374696f6e206f766572666c6f770000604482015290519081900360640190fd5b5090039056fe45524332303a207472616e7366657220746f20746865207a65726f206164647265737345524332303a206275726e20616d6f756e7420657863656564732062616c616e636545524332303a20617070726f766520746f20746865207a65726f206164647265737345524332303a207472616e7366657220616d6f756e7420657863656564732062616c616e636545524332303a207472616e7366657220616d6f756e74206578636565647320616c6c6f77616e636545524332303a206275726e2066726f6d20746865207a65726f206164647265737345524332303a207472616e736665722066726f6d20746865207a65726f206164647265737345524332303a20617070726f76652066726f6d20746865207a65726f206164647265737345524332303a2064656372656173656420616c6c6f77616e63652062656c6f77207a65726fa2646970667358221220b4cca82e29f78d150d53fbb67139332a0119b0a0679b7eafdb34e9a33f596ab364736f6c63430007060033",
  "immutableReferences": {},
  "source": "// SPDX-License-Identifier: Apache-2.0\npragma solidity 0.7.6;\n\nimport \"@openzeppelin/contracts/token/ERC20/ERC20.sol\";\n\ncontract ERC20Mock is ERC20(\"ERC20Mock\", \"MCK\") {\n    bool public transferFromCalled = false;\n\n    bool public transferCalled = false;\n    address public transferRecipient = address(0);\n    uint256 public transferAmount = 0;\n\n    function mint(address user, uint256 amount) public {\n        _mint(user, amount);\n    }\n\n    function burnFrom(address user, uint256 amount) public {\n        _burn(user, amount);\n    }\n\n    function transferFrom(address sender, address recipient, uint256 amount) public virtual override returns (bool) {\n        transferFromCalled = true;\n\n        return super.transferFrom(sender, recipient, amount);\n    }\n\n    function transfer(address recipient, uint256 amount) public virtual override returns (bool) {\n        transferCalled = true;\n        transferRecipient = recipient;\n        transferAmount = amount;\n\n        return super.transfer(recipient, amount);\n    }\n}\n",
  "sourcePath": "/mnt/c/pr0/SWINGBY/BARN/contracts/mocks/ERC20Mock.sol",
  "compiler": {
    "name": "solc",
    "version": "0.7.6+commit.7338295f.Emscripten.clang"
  },
  "schemaVersion": "3.4.3",
  "updatedAt": "2021-12-06T21:23:57.039Z",
  "devdoc": {
    "kind": "dev",
    "methods": {
      "allowance(address,address)": {
        "details": "See {IERC20-allowance}."
      },
      "approve(address,uint256)": {
        "details": "See {IERC20-approve}. Requirements: - `spender` cannot be the zero address."
      },
      "balanceOf(address)": {
        "details": "See {IERC20-balanceOf}."
      },
      "decimals()": {
        "details": "Returns the number of decimals used to get its user representation. For example, if `decimals` equals `2`, a balance of `505` tokens should be displayed to a user as `5,05` (`505 / 10 ** 2`). Tokens usually opt for a value of 18, imitating the relationship between Ether and Wei. This is the value {ERC20} uses, unless {_setupDecimals} is called. NOTE: This information is only used for _display_ purposes: it in no way affects any of the arithmetic of the contract, including {IERC20-balanceOf} and {IERC20-transfer}."
      },
      "decreaseAllowance(address,uint256)": {
        "details": "Atomically decreases the allowance granted to `spender` by the caller. This is an alternative to {approve} that can be used as a mitigation for problems described in {IERC20-approve}. Emits an {Approval} event indicating the updated allowance. Requirements: - `spender` cannot be the zero address. - `spender` must have allowance for the caller of at least `subtractedValue`."
      },
      "increaseAllowance(address,uint256)": {
        "details": "Atomically increases the allowance granted to `spender` by the caller. This is an alternative to {approve} that can be used as a mitigation for problems described in {IERC20-approve}. Emits an {Approval} event indicating the updated allowance. Requirements: - `spender` cannot be the zero address."
      },
      "name()": {
        "details": "Returns the name of the token."
      },
      "symbol()": {
        "details": "Returns the symbol of the token, usually a shorter version of the name."
      },
      "totalSupply()": {
        "details": "See {IERC20-totalSupply}."
      },
      "transfer(address,uint256)": {
        "details": "See {IERC20-transfer}. Requirements: - `recipient` cannot be the zero address. - the caller must have a balance of at least `amount`."
      },
      "transferFrom(address,address,uint256)": {
        "details": "See {IERC20-transferFrom}. Emits an {Approval} event indicating the updated allowance. This is not required by the EIP. See the note at the beginning of {ERC20}. Requirements: - `sender` and `recipient` cannot be the zero address. - `sender` must have a balance of at least `amount`. - the caller must have allowance for ``sender``'s tokens of at least `amount`."
      }
    },
    "version": 1
  },
  "userdoc": {
    "kind": "user",
    "methods": {},
    "version": 1
  }
}