{
  "contractName": "MulticallMock",
  "abi": [
    {
      "inputs": [
        {
          "internalType": "address",
          "name": "_barn",
          "type": "address"
        },
        {
          "internalType": "address",
          "name": "_bond",
          "type": "address"
        }
      ],
      "stateMutability": "nonpayable",
      "type": "constructor"
    },
    {
      "inputs": [
        {
          "internalType": "uint256",
          "name": "amount",
          "type": "uint256"
        },
        {
          "internalType": "address",
          "name": "user1",
          "type": "address"
        },
        {
          "internalType": "address",
          "name": "user2",
          "type": "address"
        }
      ],
      "name": "multiDelegate",
      "outputs": [],
      "stateMutability": "nonpayable",
      "type": "function"
    },
    {
      "inputs": [
        {
          "internalType": "uint256",
          "name": "amount",
          "type": "uint256"
        }
      ],
      "name": "multiDeposit",
      "outputs": [],
      "stateMutability": "nonpayable",
      "type": "function"
    }
  ],
  "bytecode": "0x608060405234801561001057600080fd5b506040516105953803806105958339818101604052604081101561003357600080fd5b508051602090910151600080546001600160a01b039384166001600160a01b0319918216179091556001805493909216921691909117905561051b8061007a6000396000f3fe608060405234801561001057600080fd5b50600436106100365760003560e01c8063aa818fab1461003b578063b2ad5e1e14610071575b600080fd5b61006f6004803603606081101561005157600080fd5b508035906001600160a01b036020820135811691604001351661008e565b005b61006f6004803603602081101561008757600080fd5b50356102a5565b600154600080546040805163095ea7b360e01b81526001600160a01b039283166004820152602481018890529051919093169263095ea7b39260448083019360209390929083900390910190829087803b1580156100eb57600080fd5b505af11580156100ff573d6000803e3d6000fd5b505050506040513d602081101561011557600080fd5b5050600080546040805163b6b55f2560e01b81526004810187905290516001600160a01b039092169263b6b55f259260248084019382900301818387803b15801561015f57600080fd5b505af1158015610173573d6000803e3d6000fd5b505060008054604080516317066a5760e21b81526001600160a01b0388811660048301529151919092169450635c19a95c93506024808301939282900301818387803b1580156101c257600080fd5b505af11580156101d6573d6000803e3d6000fd5b505060008054604080516317066a5760e21b81526001600160a01b0387811660048301529151919092169450635c19a95c93506024808301939282900301818387803b15801561022557600080fd5b505af1158015610239573d6000803e3d6000fd5b505060008054604080516317066a5760e21b81526001600160a01b0388811660048301529151919092169450635c19a95c93506024808301939282900301818387803b15801561028857600080fd5b505af115801561029c573d6000803e3d6000fd5b50505050505050565b6001546000546001600160a01b039182169163095ea7b391166102c9846003610462565b6040518363ffffffff1660e01b815260040180836001600160a01b0316815260200182815260200192505050602060405180830381600087803b15801561030f57600080fd5b505af1158015610323573d6000803e3d6000fd5b505050506040513d602081101561033957600080fd5b5050600080546040805163b6b55f2560e01b81526004810185905290516001600160a01b039092169263b6b55f259260248084019382900301818387803b15801561038357600080fd5b505af1158015610397573d6000803e3d6000fd5b5050600080546040805163b6b55f2560e01b81526004810187905290516001600160a01b03909216945063b6b55f259350602480820193929182900301818387803b1580156103e557600080fd5b505af11580156103f9573d6000803e3d6000fd5b5050600080546040805163b6b55f2560e01b81526004810187905290516001600160a01b03909216945063b6b55f259350602480820193929182900301818387803b15801561044757600080fd5b505af115801561045b573d6000803e3d6000fd5b5050505050565b600082610471575060006104be565b8282028284828161047e57fe5b04146104bb5760405162461bcd60e51b81526004018080602001828103825260218152602001806104c56021913960400191505060405180910390fd5b90505b9291505056fe536166654d6174683a206d756c7469706c69636174696f6e206f766572666c6f77a26469706673582212205ac86943f5dac1740d8f076fc468ee18c26ce3b6270464bee705db982d0d5d2464736f6c63430007060033",
  "immutableReferences": {},
  "source": "// SPDX-License-Identifier: Apache-2.0\npragma solidity 0.7.6;\n\nimport \"../interfaces/IBarn.sol\";\nimport \"@openzeppelin/contracts/token/ERC20/IERC20.sol\";\nimport \"@openzeppelin/contracts/math/SafeMath.sol\";\n\ncontract MulticallMock {\n    using SafeMath for uint256;\n\n    IBarn barn;\n    IERC20 bond;\n\n    constructor(address _barn, address _bond) {\n        barn = IBarn(_barn);\n        bond = IERC20(_bond);\n    }\n\n    function multiDelegate(uint256 amount, address user1, address user2) public {\n        bond.approve(address(barn), amount);\n\n        barn.deposit(amount);\n        barn.delegate(user1);\n        barn.delegate(user2);\n        barn.delegate(user1);\n    }\n\n    function multiDeposit(uint256 amount) public {\n        bond.approve(address(barn), amount.mul(3));\n\n        barn.deposit(amount);\n        barn.deposit(amount);\n        barn.deposit(amount);\n    }\n}\n",
  "sourcePath": "/mnt/c/pr0/SWINGBY/BARN/contracts/mocks/MulticallMock.sol",
  "compiler": {
    "name": "solc",
    "version": "0.7.6+commit.7338295f.Emscripten.clang"
  },
  "schemaVersion": "3.4.3",
  "updatedAt": "2021-12-06T21:23:57.047Z",
  "devdoc": {
    "kind": "dev",
    "methods": {},
    "version": 1
  },
  "userdoc": {
    "kind": "user",
    "methods": {},
    "version": 1
  }
}