{
  "contractName": "Rewards",
  "abi": [
    {
      "inputs": [
        {
          "internalType": "address",
          "name": "_owner",
          "type": "address"
        },
        {
          "internalType": "address",
          "name": "_token",
          "type": "address"
        },
        {
          "internalType": "address",
          "name": "_barn",
          "type": "address"
        }
      ],
      "stateMutability": "nonpayable",
      "type": "constructor"
    },
    {
      "anonymous": false,
      "inputs": [
        {
          "indexed": true,
          "internalType": "address",
          "name": "user",
          "type": "address"
        },
        {
          "indexed": false,
          "internalType": "uint256",
          "name": "amount",
          "type": "uint256"
        }
      ],
      "name": "Claim",
      "type": "event"
    },
    {
      "anonymous": false,
      "inputs": [
        {
          "indexed": true,
          "internalType": "address",
          "name": "previousOwner",
          "type": "address"
        },
        {
          "indexed": true,
          "internalType": "address",
          "name": "newOwner",
          "type": "address"
        }
      ],
      "name": "OwnershipTransferred",
      "type": "event"
    },
    {
      "inputs": [],
      "name": "balanceBefore",
      "outputs": [
        {
          "internalType": "uint256",
          "name": "",
          "type": "uint256"
        }
      ],
      "stateMutability": "view",
      "type": "function"
    },
    {
      "inputs": [],
      "name": "barn",
      "outputs": [
        {
          "internalType": "contract IBarn",
          "name": "",
          "type": "address"
        }
      ],
      "stateMutability": "view",
      "type": "function"
    },
    {
      "inputs": [],
      "name": "currentMultiplier",
      "outputs": [
        {
          "internalType": "uint256",
          "name": "",
          "type": "uint256"
        }
      ],
      "stateMutability": "view",
      "type": "function"
    },
    {
      "inputs": [],
      "name": "disabled",
      "outputs": [
        {
          "internalType": "bool",
          "name": "",
          "type": "bool"
        }
      ],
      "stateMutability": "view",
      "type": "function"
    },
    {
      "inputs": [],
      "name": "lastPullTs",
      "outputs": [
        {
          "internalType": "uint256",
          "name": "",
          "type": "uint256"
        }
      ],
      "stateMutability": "view",
      "type": "function"
    },
    {
      "inputs": [
        {
          "internalType": "address",
          "name": "",
          "type": "address"
        }
      ],
      "name": "owed",
      "outputs": [
        {
          "internalType": "uint256",
          "name": "",
          "type": "uint256"
        }
      ],
      "stateMutability": "view",
      "type": "function"
    },
    {
      "inputs": [],
      "name": "owner",
      "outputs": [
        {
          "internalType": "address",
          "name": "",
          "type": "address"
        }
      ],
      "stateMutability": "view",
      "type": "function"
    },
    {
      "inputs": [],
      "name": "pullFeature",
      "outputs": [
        {
          "internalType": "address",
          "name": "source",
          "type": "address"
        },
        {
          "internalType": "uint256",
          "name": "startTs",
          "type": "uint256"
        },
        {
          "internalType": "uint256",
          "name": "endTs",
          "type": "uint256"
        },
        {
          "internalType": "uint256",
          "name": "totalDuration",
          "type": "uint256"
        },
        {
          "internalType": "uint256",
          "name": "totalAmount",
          "type": "uint256"
        }
      ],
      "stateMutability": "view",
      "type": "function"
    },
    {
      "inputs": [],
      "name": "renounceOwnership",
      "outputs": [],
      "stateMutability": "nonpayable",
      "type": "function"
    },
    {
      "inputs": [],
      "name": "rewardToken",
      "outputs": [
        {
          "internalType": "contract IERC20",
          "name": "",
          "type": "address"
        }
      ],
      "stateMutability": "view",
      "type": "function"
    },
    {
      "inputs": [
        {
          "internalType": "address",
          "name": "newOwner",
          "type": "address"
        }
      ],
      "name": "transferOwnership",
      "outputs": [],
      "stateMutability": "nonpayable",
      "type": "function"
    },
    {
      "inputs": [
        {
          "internalType": "address",
          "name": "",
          "type": "address"
        }
      ],
      "name": "userMultiplier",
      "outputs": [
        {
          "internalType": "uint256",
          "name": "",
          "type": "uint256"
        }
      ],
      "stateMutability": "view",
      "type": "function"
    },
    {
      "inputs": [
        {
          "internalType": "address",
          "name": "user",
          "type": "address"
        }
      ],
      "name": "registerUserAction",
      "outputs": [],
      "stateMutability": "nonpayable",
      "type": "function"
    },
    {
      "inputs": [],
      "name": "claim",
      "outputs": [
        {
          "internalType": "uint256",
          "name": "",
          "type": "uint256"
        }
      ],
      "stateMutability": "nonpayable",
      "type": "function"
    },
    {
      "inputs": [],
      "name": "ackFunds",
      "outputs": [],
      "stateMutability": "nonpayable",
      "type": "function"
    },
    {
      "inputs": [
        {
          "internalType": "address",
          "name": "source",
          "type": "address"
        },
        {
          "internalType": "uint256",
          "name": "startTs",
          "type": "uint256"
        },
        {
          "internalType": "uint256",
          "name": "endTs",
          "type": "uint256"
        },
        {
          "internalType": "uint256",
          "name": "amount",
          "type": "uint256"
        }
      ],
      "name": "setupPullToken",
      "outputs": [],
      "stateMutability": "nonpayable",
      "type": "function"
    },
    {
      "inputs": [
        {
          "internalType": "address",
          "name": "_barn",
          "type": "address"
        }
      ],
      "name": "setBarn",
      "outputs": [],
      "stateMutability": "nonpayable",
      "type": "function"
    }
  ],
  "bytecode": "0x60806040523480156200001157600080fd5b50604051620015773803806200157783398101604081905262000034916200024c565b60006200004062000112565b600080546001600160a01b0319166001600160a01b03831690811782556040519293509160008051602062001557833981519152908290a3506001600160a01b038216620000ab5760405162461bcd60e51b8152600401620000a29062000295565b60405180910390fd5b6001600160a01b038116620000d45760405162461bcd60e51b8152600401620000a290620002cc565b620000df8362000116565b600d80546001600160a01b039384166001600160a01b031991821617909155600c80549290931691161790555062000303565b3390565b6200012062000112565b6001600160a01b03166200013362000220565b6001600160a01b0316146200018f576040805162461bcd60e51b815260206004820181905260248201527f4f776e61626c653a2063616c6c6572206973206e6f7420746865206f776e6572604482015290519081900360640190fd5b6001600160a01b038116620001d65760405162461bcd60e51b8152600401808060200182810382526026815260200180620015316026913960400191505060405180910390fd5b600080546040516001600160a01b03808516939216916000805160206200155783398151915291a3600080546001600160a01b0319166001600160a01b0392909216919091179055565b6000546001600160a01b031690565b80516001600160a01b03811681146200024757600080fd5b919050565b60008060006060848603121562000261578283fd5b6200026c846200022f565b92506200027c602085016200022f565b91506200028c604085016200022f565b90509250925092565b6020808252601c908201527f72657761726420746f6b656e206d757374206e6f742062652030783000000000604082015260600190565b6020808252601c908201527f6261726e2061646472657373206d757374206e6f742062652030783000000000604082015260600190565b61121e80620003136000396000f3fe608060405234801561001057600080fd5b506004361061010b5760003560e01c806377b28482116100a2578063b1a03b6b11610071578063b1a03b6b146101c7578063df18e047146101da578063ee070805146101ed578063f2fde38b14610202578063f7c618c1146102155761010b565b806377b284821461019c5780638da5cb5b146101af57806394b5798a146101b7578063acfd9325146101bf5761010b565b80634e71d92d116100de5780634e71d92d1461017157806366a7d821146101795780636fbaaa1e1461018c578063715018a6146101945761010b565b8063100223bb14610110578063194f480e1461012e5780633b342a85146101435780634831976c14610158575b600080fd5b61011861021d565b6040516101259190611198565b60405180910390f35b610136610223565b6040516101259190610e31565b610156610151366004610da7565b610232565b005b6101606102bb565b604051610125959493929190610e82565b6101186102d9565b610156610187366004610da7565b6103f6565b61011861042c565b610156610432565b6101566101aa366004610dc1565b6104f0565b6101366106b4565b6101186106c3565b6101566106c9565b6101186101d5366004610da7565b610845565b6101186101e8366004610da7565b610857565b6101f5610869565b6040516101259190610eb0565b610156610210366004610da7565b610872565b610136610986565b60075481565b600c546001600160a01b031681565b6001600160a01b0381166102615760405162461bcd60e51b8152600401610258906110bd565b60405180910390fd5b6102696106b4565b6001600160a01b0316336001600160a01b0316146102995760405162461bcd60e51b815260040161025890611178565b600c80546001600160a01b0319166001600160a01b0392909216919091179055565b6001546002546003546004546005546001600160a01b039094169385565b60006102e433610995565b336000908152600b6020526040902054806103115760405162461bcd60e51b815260040161025890610fd1565b336000818152600b602052604080822091909155600d54905163a9059cbb60e01b81526001600160a01b039091169163a9059cbb9161035591908590600401610e45565b602060405180830381600087803b15801561036f57600080fd5b505af1158015610383573d6000803e3d6000fd5b505050506040513d601f19601f820116820180604052508101906103a79190610df9565b506103b06106c9565b336001600160a01b03167f47cee97cb7acd717b3c0aa1435d004cd5b3c8c57d70dbceb4e4458bbd60e39d4826040516103e99190611198565b60405180910390a2905090565b600c546001600160a01b031633146104205760405162461bcd60e51b815260040161025890610ebb565b61042981610995565b50565b60095481565b61043a610a08565b6001600160a01b031661044b6106b4565b6001600160a01b0316146104a6576040805162461bcd60e51b815260206004820181905260248201527f4f776e61626c653a2063616c6c6572206973206e6f7420746865206f776e6572604482015290519081900360640190fd5b600080546040516001600160a01b03909116907f8be0079c531659141344cd1fd0a4f28419497f9722a3daafe3b4186f6b6457e0908390a3600080546001600160a01b0319169055565b6104f86106b4565b6001600160a01b0316336001600160a01b0316146105285760405162461bcd60e51b815260040161025890611178565b60065460ff161561054b5760405162461bcd60e51b815260040161025890610ffb565b6001546001600160a01b031615610595576001600160a01b038416156105835760405162461bcd60e51b815260040161025890610f37565b6006805460ff191660011790556105bb565b6001600160a01b0384166105bb5760405162461bcd60e51b815260040161025890610f85565b6001600160a01b0384166106285782156105e75760405162461bcd60e51b8152600401610258906110f4565b81156106055760405162461bcd60e51b815260040161025890611137565b80156106235760405162461bcd60e51b815260040161025890611029565b610667565b8282116106475760405162461bcd60e51b81526004016102589061106b565b600081116106675760405162461bcd60e51b815260040161025890610eea565b600180546001600160a01b0319166001600160a01b038616179055600283905560038290556106968284610a0c565b60045560058190556007548311156106ae5760078390555b50505050565b6000546001600160a01b031690565b60085481565b600d546040516370a0823160e01b81526000916001600160a01b0316906370a08231906106fa903090600401610e31565b60206040518083038186803b15801561071257600080fd5b505afa158015610726573d6000803e3d6000fd5b505050506040513d601f19601f8201168201806040525081019061074a9190610e19565b905080158061075b57506008548111155b1561076857600855610843565b600c546040805163c2077e8160e01b815290516000926001600160a01b03169163c2077e81916004808301926020929190829003018186803b1580156107ad57600080fd5b505afa1580156107c1573d6000803e3d6000fd5b505050506040513d601f19601f820116820180604052508101906107e59190610e19565b9050806107f3575050610843565b600061080a60085484610a0c90919063ffffffff16565b9050600061083661082d8461082785670de0b6b3a7640000610a6e565b90610ace565b60095490610b35565b6008949094555050506009555b565b600a6020526000908152604090205481565b600b6020526000908152604090205481565b60065460ff1681565b61087a610a08565b6001600160a01b031661088b6106b4565b6001600160a01b0316146108e6576040805162461bcd60e51b815260206004820181905260248201527f4f776e61626c653a2063616c6c6572206973206e6f7420746865206f776e6572604482015290519081900360640190fd5b6001600160a01b03811661092b5760405162461bcd60e51b81526004018080602001828103825260268152602001806111a26026913960400191505060405180910390fd5b600080546040516001600160a01b03808516939216917f8be0079c531659141344cd1fd0a4f28419497f9722a3daafe3b4186f6b6457e091a3600080546001600160a01b0319166001600160a01b0392909216919091179055565b600d546001600160a01b031681565b61099d610b8f565b6109a56106c9565b60006109b082610cc4565b6001600160a01b0383166000908152600b60205260409020549091506109d69082610b35565b6001600160a01b039092166000908152600b6020908152604080832094909455600954600a9091529290209190915550565b3390565b600082821115610a63576040805162461bcd60e51b815260206004820152601e60248201527f536166654d6174683a207375627472616374696f6e206f766572666c6f770000604482015290519081900360640190fd5b508082035b92915050565b600082610a7d57506000610a68565b82820282848281610a8a57fe5b0414610ac75760405162461bcd60e51b81526004018080602001828103825260218152602001806111c86021913960400191505060405180910390fd5b9392505050565b6000808211610b24576040805162461bcd60e51b815260206004820152601a60248201527f536166654d6174683a206469766973696f6e206279207a65726f000000000000604482015290519081900360640190fd5b818381610b2d57fe5b049392505050565b600082820183811015610ac7576040805162461bcd60e51b815260206004820152601b60248201527f536166654d6174683a206164646974696f6e206f766572666c6f770000000000604482015290519081900360640190fd5b6001546001600160a01b03161580610ba8575060025442105b15610bb257610843565b60035442811115610bc05750425b8060075410610bcf5750610843565b6000610be660075483610a0c90919063ffffffff16565b600454909150600090610c059061082784670de0b6b3a7640000610a6e565b90506000610c2d670de0b6b3a764000061082784600160040154610a6e90919063ffffffff16565b42600755600d546001546040516323b872dd60e01b81529293506001600160a01b03918216926323b872dd92610c6b92169030908690600401610e5e565b602060405180830381600087803b158015610c8557600080fd5b505af1158015610c99573d6000803e3d6000fd5b505050506040513d601f19601f82011682018060405250810190610cbd9190610df9565b5050505050565b6001600160a01b0381166000908152600a60205260408120546009548291610cec9190610a0c565b600c546040516370a0823160e01b8152919250610d8791670de0b6b3a7640000916108279185916001600160a01b0316906370a0823190610d31908a90600401610e31565b60206040518083038186803b158015610d4957600080fd5b505afa158015610d5d573d6000803e3d6000fd5b505050506040513d601f19601f82011682018060405250810190610d819190610e19565b90610a6e565b9150505b919050565b80356001600160a01b0381168114610d8b57600080fd5b600060208284031215610db8578081fd5b610ac782610d90565b60008060008060808587031215610dd6578283fd5b610ddf85610d90565b966020860135965060408601359560600135945092505050565b600060208284031215610e0a578081fd5b81518015158114610ac7578182fd5b600060208284031215610e2a578081fd5b5051919050565b6001600160a01b0391909116815260200190565b6001600160a01b03929092168252602082015260400190565b6001600160a01b039384168152919092166020820152604081019190915260600190565b6001600160a01b03959095168552602085019390935260408401919091526060830152608082015260a00190565b901515815260200190565b60208082526015908201527437b7363c9031b0b63630b1363290313c903130b93760591b604082015260600190565b6020808252602d908201527f736574757020636f6e74726163743a20616d6f756e74206d757374206265206760408201526c0726561746572207468616e203609c1b606082015260800190565b6020808252602e908201527f636f6e747261637420697320616c7265616479207365742075702c20736f757260408201526d06365206d757374206265203078360941b606082015260800190565b6020808252602c908201527f636f6e7472616374206973206e6f742073657475702c20736f75726365206d7560408201526b0737420626520213d203078360a41b606082015260800190565b60208082526010908201526f6e6f7468696e6720746f20636c61696d60801b604082015260600190565b60208082526014908201527318dbdb9d1c9858dd081a5cc8191a5cd8589b195960621b604082015260600190565b60208082526022908201527f64697361626c6520636f6e74726163743a20616d6f756e74206d757374206265604082015261020360f41b606082015260800190565b60208082526032908201527f736574757020636f6e74726163743a20656e645473206d7573742062652067726040820152716561746572207468616e207374617274547360701b606082015260800190565b6020808252601c908201527f6261726e2061646472657373206d757374206e6f742062652030783000000000604082015260600190565b60208082526023908201527f64697361626c6520636f6e74726163743a2073746172745473206d757374206260408201526206520360ec1b606082015260800190565b60208082526021908201527f64697361626c6520636f6e74726163743a20656e645473206d757374206265206040820152600360fc1b606082015260800190565b60208082526006908201526510b7bbb732b960d11b604082015260600190565b9081526020019056fe4f776e61626c653a206e6577206f776e657220697320746865207a65726f2061646472657373536166654d6174683a206d756c7469706c69636174696f6e206f766572666c6f77a2646970667358221220b46f360a4a8e84c99da2a2bac8013a2a626385b4600118a1da6edb29a571e70264736f6c634300070600334f776e61626c653a206e6577206f776e657220697320746865207a65726f20616464726573738be0079c531659141344cd1fd0a4f28419497f9722a3daafe3b4186f6b6457e0",
  "immutableReferences": {},
  "source": "// SPDX-License-Identifier: Apache-2.0\npragma solidity 0.7.6;\npragma experimental ABIEncoderV2;\n\nimport \"@openzeppelin/contracts/access/Ownable.sol\";\nimport \"@openzeppelin/contracts/math/SafeMath.sol\";\nimport \"@openzeppelin/contracts/token/ERC20/IERC20.sol\";\nimport \"./interfaces/IBarn.sol\";\n\ncontract Rewards is Ownable {\n    using SafeMath for uint256;\n\n    uint256 constant decimals = 10 ** 18;\n\n    struct Pull {\n        address source;\n        uint256 startTs;\n        uint256 endTs;\n        uint256 totalDuration;\n        uint256 totalAmount;\n    }\n\n    Pull public pullFeature;\n    bool public disabled;\n    uint256 public lastPullTs;\n\n    uint256 public balanceBefore;\n    uint256 public currentMultiplier;\n\n    mapping(address => uint256) public userMultiplier;\n    mapping(address => uint256) public owed;\n\n    IBarn public barn;\n    IERC20 public rewardToken;\n\n    event Claim(address indexed user, uint256 amount);\n\n    constructor(address _owner, address _token, address _barn) {\n        require(_token != address(0), \"reward token must not be 0x0\");\n        require(_barn != address(0), \"barn address must not be 0x0\");\n\n        transferOwnership(_owner);\n\n        rewardToken = IERC20(_token);\n        barn = IBarn(_barn);\n    }\n\n    // registerUserAction is called by the Barn every time the user does a deposit or withdrawal in order to\n    // account for the changes in reward that the user should get\n    // it updates the amount owed to the user without transferring the funds\n    function registerUserAction(address user) public {\n        require(msg.sender == address(barn), 'only callable by barn');\n\n        _calculateOwed(user);\n    }\n\n    // claim calculates the currently owed reward and transfers the funds to the user\n    function claim() public returns (uint256){\n        _calculateOwed(msg.sender);\n\n        uint256 amount = owed[msg.sender];\n        require(amount > 0, \"nothing to claim\");\n\n        owed[msg.sender] = 0;\n\n        rewardToken.transfer(msg.sender, amount);\n\n        // acknowledge the amount that was transferred to the user\n        ackFunds();\n\n        emit Claim(msg.sender, amount);\n\n        return amount;\n    }\n\n    // ackFunds checks the difference between the last known balance of `token` and the current one\n    // if it goes up, the multiplier is re-calculated\n    // if it goes down, it only updates the known balance\n    function ackFunds() public {\n        uint256 balanceNow = rewardToken.balanceOf(address(this));\n\n        if (balanceNow == 0 || balanceNow <= balanceBefore) {\n            balanceBefore = balanceNow;\n            return;\n        }\n\n        uint256 totalStakedBond = barn.bondStaked();\n        // if there's no bond staked, it doesn't make sense to ackFunds because there's nobody to distribute them to\n        // and the calculation would fail anyways due to division by 0\n        if (totalStakedBond == 0) {\n            return;\n        }\n\n        uint256 diff = balanceNow.sub(balanceBefore);\n        uint256 multiplier = currentMultiplier.add(diff.mul(decimals).div(totalStakedBond));\n\n        balanceBefore = balanceNow;\n        currentMultiplier = multiplier;\n    }\n\n    // setupPullToken is used to setup the rewards system; only callable by contract owner\n    // set source to address(0) to disable the functionality\n    function setupPullToken(address source, uint256 startTs, uint256 endTs, uint256 amount) public {\n        require(msg.sender == owner(), \"!owner\");\n        require(!disabled, \"contract is disabled\");\n\n        if (pullFeature.source != address(0)) {\n            require(source == address(0), \"contract is already set up, source must be 0x0\");\n            disabled = true;\n        } else {\n            require(source != address(0), \"contract is not setup, source must be != 0x0\");\n        }\n\n        if (source == address(0)) {\n            require(startTs == 0, \"disable contract: startTs must be 0\");\n            require(endTs == 0, \"disable contract: endTs must be 0\");\n            require(amount == 0, \"disable contract: amount must be 0\");\n        } else {\n            require(endTs > startTs, \"setup contract: endTs must be greater than startTs\");\n            require(amount > 0, \"setup contract: amount must be greater than 0\");\n        }\n\n        pullFeature.source = source;\n        pullFeature.startTs = startTs;\n        pullFeature.endTs = endTs;\n        pullFeature.totalDuration = endTs.sub(startTs);\n        pullFeature.totalAmount = amount;\n\n        if (lastPullTs < startTs) {\n            lastPullTs = startTs;\n        }\n    }\n\n    // setBarn sets the address of the BarnBridge Barn into the state variable\n    function setBarn(address _barn) public {\n        require(_barn != address(0), 'barn address must not be 0x0');\n        require(msg.sender == owner(), '!owner');\n\n        barn = IBarn(_barn);\n    }\n\n    // _pullToken calculates the amount based on the time passed since the last pull relative\n    // to the total amount of time that the pull functionality is active and executes a transferFrom from the\n    // address supplied as `pullTokenFrom`, if enabled\n    function _pullToken() internal {\n        if (\n            pullFeature.source == address(0) ||\n            block.timestamp < pullFeature.startTs\n        ) {\n            return;\n        }\n\n        uint256 timestampCap = pullFeature.endTs;\n        if (block.timestamp < pullFeature.endTs) {\n            timestampCap = block.timestamp;\n        }\n\n        if (lastPullTs >= timestampCap) {\n            return;\n        }\n\n        uint256 timeSinceLastPull = timestampCap.sub(lastPullTs);\n        uint256 shareToPull = timeSinceLastPull.mul(decimals).div(pullFeature.totalDuration);\n        uint256 amountToPull = pullFeature.totalAmount.mul(shareToPull).div(decimals);\n\n        lastPullTs = block.timestamp;\n        rewardToken.transferFrom(pullFeature.source, address(this), amountToPull);\n    }\n\n    // _calculateOwed calculates and updates the total amount that is owed to an user and updates the user's multiplier\n    // to the current value\n    // it automatically attempts to pull the token from the source and acknowledge the funds\n    function _calculateOwed(address user) internal {\n        _pullToken();\n        ackFunds();\n\n        uint256 reward = _userPendingReward(user);\n\n        owed[user] = owed[user].add(reward);\n        userMultiplier[user] = currentMultiplier;\n    }\n\n    // _userPendingReward calculates the reward that should be based on the current multiplier / anything that's not included in the `owed[user]` value\n    // it does not represent the entire reward that's due to the user unless added on top of `owed[user]`\n    function _userPendingReward(address user) internal view returns (uint256) {\n        uint256 multiplier = currentMultiplier.sub(userMultiplier[user]);\n\n        return barn.balanceOf(user).mul(multiplier).div(decimals);\n    }\n}\n",
  "sourcePath": "/mnt/c/pr0/SWINGBY/BARN/contracts/Rewards.sol",
  "compiler": {
    "name": "solc",
    "version": "0.7.6+commit.7338295f.Emscripten.clang"
  },
  "schemaVersion": "3.4.3",
  "updatedAt": "2021-12-06T21:23:56.889Z",
  "devdoc": {
    "kind": "dev",
    "methods": {
      "owner()": {
        "details": "Returns the address of the current owner."
      },
      "renounceOwnership()": {
        "details": "Leaves the contract without owner. It will not be possible to call `onlyOwner` functions anymore. Can only be called by the current owner. NOTE: Renouncing ownership will leave the contract without an owner, thereby removing any functionality that is only available to the owner."
      },
      "transferOwnership(address)": {
        "details": "Transfers ownership of the contract to a new account (`newOwner`). Can only be called by the current owner."
      }
    },
    "version": 1
  },
  "userdoc": {
    "kind": "user",
    "methods": {},
    "version": 1
  }
}