{
  "contractName": "RewardsMock",
  "abi": [
    {
      "inputs": [],
      "name": "called",
      "outputs": [
        {
          "internalType": "bool",
          "name": "",
          "type": "bool"
        }
      ],
      "stateMutability": "view",
      "type": "function"
    },
    {
      "inputs": [],
      "name": "calledWithUser",
      "outputs": [
        {
          "internalType": "address",
          "name": "",
          "type": "address"
        }
      ],
      "stateMutability": "view",
      "type": "function"
    },
    {
      "inputs": [
        {
          "internalType": "address",
          "name": "user",
          "type": "address"
        }
      ],
      "name": "registerUserAction",
      "outputs": [],
      "stateMutability": "nonpayable",
      "type": "function"
    }
  ],
  "bytecode": "0x608060405234801561001057600080fd5b50610127806100206000396000f3fe6080604052348015600f57600080fd5b5060043610603c5760003560e01c806350f9b6cd14604157806366a7d82114605b578063e3dc9dc5146080575b600080fd5b604760a2565b604080519115158252519081900360200190f35b607e60048036036020811015606f57600080fd5b50356001600160a01b031660ab565b005b608660dd565b604080516001600160a01b039092168252519081900360200190f35b60005460ff1681565b600080546001600160a01b0390921661010002610100600160a81b031960ff1990931660011792909216919091179055565b60005461010090046001600160a01b03168156fea2646970667358221220a922f9f632334dd1b19b73b90dca79a848dd09071e68c98bc0c9dade5e363b6964736f6c63430007060033",
  "immutableReferences": {},
  "source": "// SPDX-License-Identifier: Apache-2.0\npragma solidity 0.7.6;\n\ncontract RewardsMock {\n    bool public called;\n    address public calledWithUser;\n\n    function registerUserAction(address user) public {\n        called = true;\n        calledWithUser = user;\n    }\n}\n",
  "sourcePath": "/mnt/c/pr0/SWINGBY/BARN/contracts/mocks/RewardsMock.sol",
  "compiler": {
    "name": "solc",
    "version": "0.7.6+commit.7338295f.Emscripten.clang"
  },
  "schemaVersion": "3.4.3",
  "updatedAt": "2021-12-06T21:23:57.054Z",
  "devdoc": {
    "kind": "dev",
    "methods": {},
    "version": 1
  },
  "userdoc": {
    "kind": "user",
    "methods": {},
    "version": 1
  }
}