{
  "contractName": "Test2Facet",
  "abi": [
    {
      "inputs": [],
      "name": "test1Func1",
      "outputs": [
        {
          "internalType": "uint256",
          "name": "",
          "type": "uint256"
        }
      ],
      "stateMutability": "view",
      "type": "function"
    }
  ],
  "bytecode": "0x6080604052348015600f57600080fd5b5060818061001e6000396000f3fe6080604052348015600f57600080fd5b506004361060285760003560e01c806319e3b53314602d575b600080fd5b60336045565b60408051918252519081900360200190f35b6104d29056fea2646970667358221220e101a2d6b1f5406a46e4b065397ea14dcb9091c3750948ce630fcd68182c7ff064736f6c63430007060033",
  "immutableReferences": {},
  "source": "// SPDX-License-Identifier: Apache-2.0\npragma solidity 0.7.6;\n\ncontract Test2Facet {\n    function test1Func1() external view returns (uint256) {\n        return 1234;\n    }\n}\n",
  "sourcePath": "/mnt/c/pr0/SWINGBY/BARN/contracts/mocks/Test2Facet.sol",
  "compiler": {
    "name": "solc",
    "version": "0.7.6+commit.7338295f.Emscripten.clang"
  },
  "schemaVersion": "3.4.3",
  "updatedAt": "2021-12-06T21:23:57.067Z",
  "devdoc": {
    "kind": "dev",
    "methods": {},
    "version": 1
  },
  "userdoc": {
    "kind": "user",
    "methods": {},
    "version": 1
  }
}